:020000040040BA
:10000000D0340020550840005108400051084000FD
:100010005108400051084000510840000000000015
:100020000000000000000000000000005108400037
:1000300051084000000000005108400051084000F5
:10004000510840005108400051084000510840004C
:10005000510840005108400051084000510840003C
:10006000510840005108400000000000C904400051
:10007000DD044000F10440005108400051084000F8
:10008000000000000000000051084000510840003E
:1000900051084000510840005108400051084000FC
:1000A00051084000510840005108400051084000EC
:1000B00051084000510840005108400051084000DC
:1000C00051084000510840005108400010B5054C4F
:1000D000237833B9044B13B10448AFF300800123F4
:1000E000237010BD3004002000000000480D4000C7
:1000F000084B10B51BB108490848AFF30080084809
:10010000036803B910BD074B002BFBD0BDE81040BE
:10011000184700BF0000000034040020480D4000D4
:10012000480D40000000000010B50E480E4B9847E7
:100130003E2100200D4B98470D4CA0470028FCD0D5
:100140000C4B98470C4A0D4B9A620D4CA047002867
:10015000FCD010200B4B98470B4B98470148024BA3
:10016000984710BD000E2707190A40006D05400092
:10017000C1054000D1054000013F132000040E409E
:10018000E10540000505400005094000F8B5274895
:10019000274B98470B20274CA0470C20A0470D2049
:1001A000A047254B4FF400021A631A61C3F8A02040
:1001B000224C04256561C4F8A0506566C4F89050CF
:1001C00065656562C4F88050226F22F004022267E0
:1001D000626F22F0040262674FF480121A631A61A0
:1001E000C3F8A0204FF4803222632261C4F8A0201B
:1001F0004FF480021A631A61C3F8A020104F3946E9
:100200000320104EB04739462846B0476566C4F80B
:10021000905065656562C4F88050236F23F0040335
:100220002367636F23F004036367F8BD50140E4027
:1002300049084000F105400000120E40000E0E403B
:10024000010000083D0340004264B1F1C05F2FD0BF
:1002500007D8B1F1006F14D0B1F1805F1ED039B969
:100260007047B1F1205F36D004D8B1F1005F29D0DA
:1002700042607047B1F1405F2DD0B1F1605F2AD08C
:10028000F6E710B4046F016FD343214019400167B2
:10029000446F416F21400B4043671AE0036F1343E3
:1002A0000367416F436F0B4023EA02034367DFE7B5
:1002B000016F036F0B4023EA02030367436F13438D
:1002C0004367D5E7036F13430367436F13434367E4
:1002D000CEE7426010BC7047416412F0010F14BFBA
:1002E0004166016612F00A0F14BF0162416212F00A
:1002F000020F02D0C0F8801004E012F0080F18BFFF
:10030000C0F8841041610160704700BF10B44164BF
:10031000019C0CB1416600E001660BB1016500E093
:1003200041650AB1016300E041630161016010BCF5
:10033000704700BFC06C7047806C704770B582B06A
:100340000D46430903F5001303F207735C0201F045
:10035000F043B3F1005F47D009D8B3F1805F21D0FB
:10036000B3F1C05F2FD0B3F1006F6FD109E0B3F1EB
:10037000405F55D0B3F1605F52D0B3F1205F44D0FD
:1003800064E000F01F000126864032464FF0006115
:100390002046304B984715F0010F14BF666626665D
:1003A000012054E000F01F000126864032464FF045
:1003B00080512046274B984715F0010F14BF666601
:1003C0002666012043E000F01F00012686403246E9
:1003D0004FF0C05120461F4B984715F0010F14BF36
:1003E00066662666012032E000F01F000126864086
:1003F00032464FF000512046164B984715F0010F3A
:1004000014BF66662666012021E000F01F01012668
:100410002A4606FA01F120460F4B9847304616E06F
:1004200005F0605200F01F01012605EA0603009363
:10043000C5F38003B2F1605F14BF0022012206FA07
:1004400001F12046054CA047304600E0002002B0F4
:1004500070BD00BF49024000D90240000D034000BA
:100460002DE9F84381468846124B98470546484691
:10047000114B9847054013D0104C04F160062368D7
:10048000434508D16168294205D0E3684046984752
:10049000636825EA0305B44202D01034002DEED182
:1004A000074B1B6823B1074B1B680BB148469847A5
:1004B000BDE8F883350340003903400050040020B4
:1004C000C00400204C04002008B50B210148024B59
:1004D000984708BD000E0E406104400008B50C218D
:1004E0000148024B984708BD00100E4061044000CF
:1004F00008B50D210148024B984708BD00120E4077
:1005000061044000184A136B23F070031843106312
:10051000936E13F0080F03D009E0013B03D11EE0F6
:100520004FF4006310498A6E12F0080FF5D00E4A9E
:10053000136B23F0030343F002031363906E10F078
:10054000080004D000207047013B03D109E04FF4BC
:10055000006305498A6E12F0080FF5D0704701203C
:1005600070470120704700BF00040E4038B11149A8
:100570000B6A114A1A40114B13430B6270470D4826
:10058000026A090289B222F45C1323F0030343F4E4
:100590005C1343F001030B4303620246936E13F0B6
:1005A000010FFBD0034A136A43F09B7343F480337B
:1005B0001362704700040E40FCFFC8FE02003701C2
:1005C000024B986E00F48030704700BF00040E406C
:1005D0004FF00052014B9A62704700BF00040E407A
:1005E000024B986E00F00200704700BF00040E40FE
:1005F00022281ED81F280CD8114B9A69012383404A
:10060000934318D0012303FA00F00D4B186100202A
:10061000704720380A4BD3F80821012383409343C5
:100620000BD0012303FA00F0054BC3F800010020B2
:10063000704701207047002070470020704700BFBE
:1006400000040E400F4B994219D84900B2FBF1F259
:10065000043AFF2A07D9002301335208FF2A03D99D
:10066000072BF9D100E00023110289B21B0403F427
:10067000E0230B43D2B21A430261002070470120ED
:10068000704700BF801A060038B504460D464FF08B
:10069000FF338362036A80230360036B08230360D4
:1006A00020230360042303600A684968054B9847C8
:1006B000012814BF002001206B7A012B04BF4023C6
:1006C000236038BD450640000A4659B10378012928
:1006D000C4BF417841EA0323022A05DD807840EA5D
:1006E0000320704700207047184670472DE9F041FD
:1006F000CC68002C45D00B4605468E68002068600B
:100700004A68120202F4407242F480511A7C1204C8
:1007100002F4FE020A436A60E86059681846274BF3
:100720009847E860012C04D103232B604FF0010EA1
:1007300033E001232B604FF0000E2EE00A462B6AB7
:1007400013F4807F20D1511E0AB3012C06D1BEF1D3
:10075000000F2FD1C5F80080E6462BE013F0020F02
:1007600005D02B6B3370013C01363A4600E00A4657
:10077000002CE4D12B6A13F0010FFBD02B6ABDE8EB
:10078000F0810120BDE8F0810520BDE8F08109205D
:10079000BDE8F0810520BDE8F0812B6A13F480707C
:1007A000F8D143F6972143F698274FF002084FF00F
:1007B000010CCAE713F0020FC0D0D2E7C90640000F
:1007C00070B5CD68002D34D00B4604468E680020ED
:1007D00060600A7C120402F4FE015A68120202F4FC
:1007E00040720A436260E06059681846154B9847AA
:1007F000E060236A13F4807F04D01CE0236A13F4C2
:10080000807F1AD113F0040F03D033786363013D66
:100810000136002DF2D1236A13F480700FD113F04A
:10082000040FF8D002232360236A13F0010FFBD0DA
:1008300070BD012070BD052070BD052070BD052074
:1008400070BD00BFC90640004FF4004343607047CD
:10085000FEE700BF08B5204B204A9A4212D9204B30
:100860001D4A9A421ED21146013B9B1A23F00303F4
:1008700004331A4A134452F8040B41F8040B9A4209
:10088000F9D10FE0144B154A9A420BD2144B124A7D
:100890009A1A144811182AB151F8042943F8042D62
:1008A0008142F9D100BF104B104A9A420BD2131D5E
:1008B0000F4AD21A22F003021A44043B002143F8E3
:1008C000041B9A42FBD10B4B0B4A9A600B4B984787
:1008D0000B4B9847FEE700BF00000020480D40008A
:1008E00030040020440D4000CC04002030040020DF
:1008F000CF04002000ED00E000004000DD0B4000D0
:10090000C10A40003D4B1B6B03F00303032B5DD872
:10091000DFE803F0020E2B2B394B5B6913F0800FDD
:1009200014BF4FF400424FF4FA42364B1A604DE0C8
:10093000324B1B6A13F0807F03D0334A314B1A606D
:1009400044E0324A2F4B1A602C4B1B6A03F07003B1
:10095000102B02D0202B04D038E02D4A294B1A60EE
:1009600034E0294A274B1A6030E0244B1B6A13F00D
:10097000807F03D0244A234B1A6012E0234A214B84
:100980001A601E4B1B6A03F07003102B02D0202B41
:1009900004D006E01E4A1B4B1A6002E01A4A194BAB
:1009A0001A60164B1B6B03F00303022B134A07BF9D
:1009B000936A926AD36AD26A1248C3F30A410368FF
:1009C00001FB0333D2B2B3FBF2F303600B4B1B6B9F
:1009D00003F07003702B07D10A4A13680D49A1FB7D
:1009E00003135B0813607047044B1B6B0549C3F38B
:1009F00002120B68D3400B60704700BF00040E402A
:100A000010140E4000000020001BB70000093D003C
:100A100000127A00ABAAAAAA1A4B984207D84FF044
:100A20008063194A136002F5007213607047174B18
:100A3000984206D8164B144A136002F500721360F0
:100A40007047144B984206D8134B0F4A136002F5B7
:100A5000007213607047114B984206D8104B0A4A37
:100A6000136002F50072136070470E4B984294BFFA
:100A70004FF004230C4B044A136002F5007213601C
:100A8000704700BFFF2C3101000A0E40FF5962027F
:100A900000010004FF86930300020004FFB3C404B6
:100AA00000030004FFE0F50500050004034B58793E
:100AB00080F0010000F00100704700BFC404002076
:100AC00080B58EB0384B9847384B984700240B942C
:100AD000374B0A9352268DF82C60364B099313201E
:100AE000354B9847354D09A92846354B9847354B26
:100AF0001B88ADF80430FB238DF808308DF80940D1
:100B0000049408940223059301AA069207938DF892
:100B1000206009940D940A9302AA0B920C938DF80D
:100B2000346004A92846284CA04709A92846A047B4
:100B3000264B4FF400021A61C3F8A0200026244D72
:100B40001E4C1F46049608960223059302AB06939B
:100B50000623079352238DF8203004A92046A84786
:100B60000028FAD102AA1B4B981D12F8011B03F8AA
:100B7000011B8342F9D18DF8046009960D9602237A
:100B80000A9301AB0B9301230C9352238DF834305D
:100B900009A920460C4B98470F4B012B4FF400033B
:100BA0000CBF7B633B63CDE7290140008D01400012
:100BB000A0860100000E2707F105400000800140DB
:100BC00089064000180D4000C107400000120E4089
:100BD000ED064000C4040020AD0A400070B50F4E81
:100BE0000F4D761BB61018BF002405D0013455F800
:100BF000043B9847A642F9D10A4E0B4D761B00F0F4
:100C000091F8B61018BF002406D0013455F8043B03
:100C10009847A642F9D170BD70BD00BF300D4000AD
:100C2000300D4000380D4000300D4000024B13B134
:100C3000024800F005B87047000000004D0C40006D
:100C4000002301461A46184600F014B838B5074D7F
:100C5000074C2C1BA41005D0013C55F8043D9847C7
:100C6000002CF9D1BDE8384000F066B8480D4000CE
:100C7000440D40002DE9F047254C2568D5F8484142
:100C80000646884692469946C4B360681F2817DC1A
:100C9000431C76B104EB80050122C5F888A0D4F886
:100CA000881182401143022EC4F88811C5F80891BA
:100CB0001ED00230636044F820800020BDE8F08739
:100CC000144B03B34FF4C870AFF300800446D0B1A7
:100CD000D5F84831002780E88800C5F848413846F3
:100CE0000123C4F88871C4F88C71002EE1D0D1E7DB
:100CF000D4F88C110A43C4F88C21DAE705F5A67400
:100D0000C5F84841C1E74FF0FF30BDE8F08700BFAC
:100D1000200D400000000000F055000043000000DE
:100D200008000020F8B500BFF8BC08BC9E4670471C
:100D30002D0C4000F1004000F8B500BFF8BC08BC25
:080D40009E467047CD00400003
:100D480000093D000000000000000000F40200203F
:100D58005C030020C4030020000000000000000025
:100D6800000000000000000000000000000000007B
:100D78000000000000000000000000001C0D400002
:100D8800000000000000000000000000000000005B
:100D9800000000000000000000000000000000004B
:100DA800000000000000000000000000000000003B
:100DB800000000000000000000000000000000002B
:100DC800000000000000000000000000000000001B
:100DD800000000000000000000000000000000000B
:100DE80000000000000000000000000000000000FB
:100DF80001000000000000000E33CDAB34126DE698
:100E0800ECDE05000B000000000000000000000000
:100E180000000000000000000000000000000000CA
:100E280000000000000000000000000000000000BA
:100E380000000000000000000000000000000000AA
:100E4800000000000000000000000000000000009A
:04000005004008555A
:00000001FF
