:020000040040BA
:10000000E83800208D1F400055204000552040005A
:1000100055204000552040005520400000000000C1
:10002000000000000000000000000000552040001B
:1000300055204000000000005520400055204000A1
:1000400055204000552040005520400055204000DC
:1000500055204000552040005520400055204000CC
:10006000552040005520400000000000E9154000E8
:100070000116400019164000552040005520400050
:100080000000000000000000552040005520400006
:10009000552040005520400055204000552040008C
:1000A000552040005520400055204000552040007C
:1000B000552040005520400055204000552040006C
:1000C00055204000552040005520400010B5054CFB
:1000D000237833B9044B13B10448AFF300800123F4
:1000E000237010BD48080020000000000C2E4000C6
:1000F000084B10B51BB108490848AFF30080084809
:10010000036803B910BD074B002BFBD0BDE81040BE
:10011000184700BF000000004C0800200C2E4000D3
:100120000C2E40000000000080B483B000AF786067
:100130007B68072B25D801A252F823F05D0140000F
:1001400063014000690140006F01400073014000FD
:10015000770140007B0140007F0140004FF4FA43EB
:1001600010E04FF400430DE04FF400430AE0084B69
:1001700008E0084B06E0084B04E0074B02E0064BA2
:1001800000E0002318460C37BD4680BC704700BF16
:1001900000093D0000127A00001BB70080B500AFD7
:1001A0000620044B9847024613469B0013449B00CD
:1001B000184680BD2901400080B500AF024B98472A
:1001C00003465B08184680BD9D01400080B483B0A3
:1001D00000AF78607B6801221A6000BF0C37BD4613
:1001E00080BC704780B483B000AF78600B467B80E2
:1001F0007A887B68DA6000BF0C37BD4680BC7047E8
:1002000080B582B000AF78600B46FB70FB789BB284
:1002100019467868024B984700BF0837BD4680BD35
:10022000E501400000000000F0B58DB000AF0346CE
:10023000FB710123FB6007F10C0319460020304BD2
:1002400098470023FB62002387F82B30FB6A7B6210
:100250007B6A3B623B6A5B09FB61FB6903F5001348
:1002600003F207735B02BB6197F82B30002B09D0B8
:10027000FB6A7B617B6903F01F0301229A40BB6923
:100280001A6308E0FB6A3B613B6903F01F0301222C
:100290009A40BB695A63FB7919460020194B98476D
:1002A000194B984703464FF00004DB1844EB040455
:1002B000A60046EA93769D005B1944EB06040EA265
:1002C000D2E900125D1844EB0206284631460F4C75
:1002D0000F4A4FF00003A04703460C4618460D4B4B
:1002E000984707F10C03194600200B4B984700BFB5
:1002F0003437BD46F0BD00BF7F9FD5000000000031
:10030000590D400001024000B90140007929400028
:10031000809FD50001000020B10D400000000000CA
:10032000F0B58DB000AF0346FB710123FB6007F110
:100330000C0319460020304B98470023FB62012331
:1003400087F82B30FB6A7B627B6A3B623B6A5B0906
:10035000FB61FB6903F5001303F207735B02BB61EA
:1003600097F82B30002B09D0FB6A7B617B6903F087
:100370001F0301229A40BB691A6308E0FB6A3B61D4
:100380003B6903F01F0301229A40BB695A63FB7962
:1003900019460020194B9847194B984703464FF0D0
:1003A0000004DB1844EB0404A60046EA93769D00A3
:1003B0005B1944EB06040EA2D2E900125D1844EB6F
:1003C0000206284631460F4C0F4A4FF00003A04763
:1003D00003460C4618460D4B984707F10C03194687
:1003E00000200B4B984700BF3437BD46F0BD00BF1F
:1003F0007F9FD50000000000590D40000102400021
:10040000B901400079294000809FD50001000020FB
:10041000B10D4000000000002DE9F04391B000AFA5
:100420000223FB630023FB76FB6B7B617B693B61F3
:100430003B695B09FB60FB6803F5001303F207737C
:100440005B02BB60FB7E002B09D0FB6B7B607B6893
:1004500003F01F0301229A40BB681A6308E0FB6B9C
:100460003B603B6803F01F0301229A40BB685A635C
:100470003D4B984703464FF00004DB1844EB04045F
:100480004FEA840949EA93794FEA830813EB08039A
:1004900044EB090432A2D2E9001213EB010844EB49
:1004A000020940464946314C314A4FF00003A0470B
:1004B00003460C4618462F4B98470223BB63012383
:1004C00087F83730BB6B3B633B6BFB62FB6A5B09B6
:1004D000BB62BB6A03F5001303F207735B027B6226
:1004E00097F83730002B09D0BB6B3B623B6A03F0B7
:1004F0001F0301229A407B6A1A6308E0BB6BFB6111
:10050000FB6903F01F0301229A407B6A5A63164B72
:10051000984703464FF00004DB1844EB0404A600A0
:1005200046EA93769D005B1944EB06040CA2D2E9DF
:1005300000125D1844EB0206284631460B4C0C4A6B
:100540004FF00003A04703460C461846094B984756
:1005500000BF4437BD46BDE8F08300BFAFF3008065
:100560007F9FD50000000000B901400079294000BC
:10057000809FD5000100002080B500AFAF20024B66
:10058000984700BF80BD00BF2902400080B582B0FF
:1005900000AF0346FB718120054B9847FB79184655
:1005A000034B9847FB7918460837BD4680BD00BF0E
:1005B0002902400080B500AFA620024B984700BF3B
:1005C00080BD00BF2902400090B587B002AF002374
:1005D000FB730023BB6001237B600020084B98471E
:1005E000FA7B391DBB680093064B0020064CA047E0
:1005F0000020064B984700BF1437BD4690BD00BF92
:10060000350C4000001BB700A50C4000CD01400098
:1006100080B500AF214B9847214B9847A820214B2C
:1006200098471F201F4B9847D3201E4B9847002008
:100630001C4B984740201B4B9847A120194B9847CB
:10064000C820184B9847DA20164B98470220154BC4
:1006500098478F20144B9847A420124B9847134B70
:100660009847D5200F4B984780200E4B98478D20F8
:100670000C4B984714200B4B9847DB20094B9847AD
:100680004020084B9847D920064B9847F120054B4E
:100690009847074B984700BF80BD00BF1904400032
:1006A000C9054000290240008D054000B505400005
:1006B0007905400080B584B000AF786022E07B68A7
:1006C0001B787E2B1BD87B681B78203B114A52F885
:1006D0002330BB600123FB7309E0FB7BBA68134442
:1006E0001B7818460C4B9847FB7B0133FB73BB68A8
:1006F0001B78FA7B9A42F0D90020074B98477B6819
:1007000001337B607B681B78002BD8D100BF10378A
:10071000BD4680BD1C0000202103400080B582B092
:1007200000AF78607B68072B31D801A252F823F024
:100730008D07400051074000590740006107400005
:1007400069074000710740007907400083074000B7
:100750000020114B98471AE001200F4B984716E0F4
:1007600000200E4B984712E010200C4B98470EE0EB
:1007700020200A4B98470AE03E210020084B98476A
:1007800005E03E210120064B984700E000BF00BF76
:100790000837BD4680BD00BFB11640001D174000A0
:1007A0008D17400080B582B000AF78607B68072B62
:1007B00026D801A252F823F0D9074000DD074000F7
:1007C000DD074000EF074000EF074000EF07400063
:1007D000EF074000EF074000012312E00B4B984762
:1007E0000346002B14BF01230023DBB209E0084BB2
:1007F00098470346002B14BF01230023DBB200E01F
:10080000002318460837BD4680BD00BFE9164000EA
:100810000518400080B483B000AF78607B68072B78
:1008200025D801A252F823F0490840004F084000A3
:10083000550840005B0840005F0840006308400026
:10084000670840006B0840004FF4FA4310E04FF493
:1008500000430DE04FF400430AE0084B08E0084B6A
:1008600006E0084B04E0074B02E0064B00E00023E3
:1008700018460C37BD4680BC704700BF00093D00DC
:1008800000127A00001BB70080B582B000AF0346AB
:10089000FB7100BFFB791846054B9847034683F070
:1008A0000103DBB2002BF5D100BF0837BD4680BD88
:1008B000A507400080B586B000AFF8607A603B6065
:1008C0000B46FB72FB7A18460D4B984702467B6835
:1008D000B2FBF3F37B617B693A6802FB03F37B6154
:1008E0003B68013B1A04074B13407A68D2B21343AA
:1008F00043F47C52FB681A6000BF1837BD4680BDC8
:10090000150840000000FF0780B582B000AF786096
:1009100039603B68002B08D1094B9847094A7B682E
:100920001B6843F00053936205E0074B9847054A64
:100930007B681B68D36200BF0837BD4680BD00BF1F
:100940001D18400000040E404D18400080B582B0D4
:1009500000AF78607B68002B03D1054B98470346B6
:1009600002E0044B9847034618460837BD4680BD51
:10097000351840006518400080B582B000AF0346CE
:10098000FB71FB79033B042B08D8FB791846064B17
:100990009847FB791846054B984700E000BF00BF19
:1009A0000837BD4680BD00BF1D07400089084000D4
:1009B00080B582B000AF786000BF7868044B98477C
:1009C0000346002BF9D0002318460837BD4680BDEA
:1009D0004D09400080B500AF0620044B9847024601
:1009E00013469B0013449B00184680BD1508400029
:1009F00080B500AF024B984703465B08184680BDA0
:100A0000D509400090B583B000AF1148114B98470D
:100A10000620114B9847381D1423012206210F4C44
:100A2000A0473B1D002118460D4B984700200D4B59
:100A3000984710200C4B98470C4B98470C4B984705
:100A400003461846034B984700BF0C37BD4690BD80
:100A5000000E2707F921400079094000B508400041
:100A600009094000B1094000311640005D204000F6
:100A7000F109400080B483B000AF78607B68072B39
:100A800025D801A252F823F0A90A4000AF0A40007D
:100A9000B50A4000BB0A4000BF0A4000C30A40003C
:100AA000C70A4000CB0A40004FF4FA4310E04FF46D
:100AB00000430DE04FF400430AE0084B08E0084B08
:100AC00006E0084B04E0074B02E0064B00E0002381
:100AD00018460C37BD4680BC704700BF00093D007A
:100AE00000127A00001BB70080B500AF0620044B4F
:100AF0009847024613469B0013449B00184680BD4E
:100B0000750A400080B500AF024B984703465B086A
:100B1000184680BDE90A400080B483B000AF786019
:100B20007B6880221A6000BF0C37BD4680BC7047CE
:100B300080B483B000AF78607B684FF080721A6039
:100B400000BF0C37BD4680BC704700BF80B483B087
:100B500000AF78607B685B6843F001027B685A6095
:100B600000BF0C37BD4680BC704700BF80B483B067
:100B700000AF78607B685B6823F002027B685A6094
:100B800000BF0C37BD4680BC704700BF80B483B047
:100B900000AF78607B685B6823F004027B685A6072
:100BA00000BF0C37BD4680BC704700BF80B483B027
:100BB00000AF78607B685B6803F00403002B01D012
:100BC000012300E0002318460C37BD4680BC704767
:100BD00080B483B000AF78607B685B6843F010023C
:100BE0007B685A6000BF0C37BD4680BC704700BFB1
:100BF00080B483B000AF78607B685B6823F08002CC
:100C00007B685A6000BF0C37BD4680BC704700BF90
:100C100080B483B000AF78607B681B6903F4007315
:100C2000002B01D0012300E0002318460C37BD46FD
:100C300080BC704780B582B000AF78607868104B98
:100C4000984778680F4B984778680F4B98477868B3
:100C50000E4B984778680E4B9847002178680D4BEB
:100C6000984778680C4B984778680C4B9847002158
:100C700078680B4B984700BF0837BD4680BD00BF62
:100C800019194000190B40004D0B4000D10B4000DA
:100C9000F10B4000351940006D0B40008D0B4000FA
:100CA0006919400090B587B000AFF860B9603B604B
:100CB0001346FB71204B98470346194638681F4B73
:100CC00098470346FB82BB68196800230022F86836
:100CD0001B4CA047BB681B6808221946F868194BD3
:100CE0009847BB681B68FA8AD2B21946F868164B57
:100CF0009847BB681B6808221946F868134B984749
:100D0000BB681968FB795B08DBB21A46F868104BC0
:100D10009847BB681968FB7903F00103002B0CBFEF
:100D200001230023DBB21A46F8680A4B984700BF3C
:100D30001C37BD4690BD00BF050B4000251B400081
:100D4000BD1B4000DD1A4000611B4000391A400005
:100D500099194000E919400080B582B000AF786071
:100D600039607868104B98470346002B0AD03B68DF
:100D70001B680F2B14D83B681B68194678680B4B0F
:100D800098470DE03B681B68032B09D83B681B683C
:100D9000012202FA03F3DB4319467868034B9847B4
:100DA00000BF0837BD4680BDAD0B4000351940007F
:100DB00080B582B000AF7860396000BF7868084BBA
:100DC00098470346002BF9D00F217868054B9847C8
:100DD0007868054B984700BF0837BD4680BD00BF07
:100DE000110C400035194000310B400080B582B035
:100DF00000AF78607868034B984700BF0837BD465E
:100E000080BD00BF7D18400080B500AF0B20054BB2
:100E100098470C20034B98470D20024B984700BF82
:100E200080BD00BFED0D400080B48DB000AF786094
:100E300039607B68FB623B68BB62FB6A7B627B6AF2
:100E40005A09FB6A3B623B6A03F01F03012101FA66
:100E500003F3FA61BB61BB6A7B61FB693B613B6980
:100E600003F5001303F207735B02FB607B6903F079
:100E70000803002B03D0FB68BA695A6602E0FB68DE
:100E8000BA691A667B6903F01003002B04D0FB6873
:100E9000BA69C3F8942003E0FB68BA69C3F89020EC
:100EA0007B6903F02003002B03D0FB68BA691A6545
:100EB00002E0FB68BA695A657B6903F0C003002B46
:100EC00003D0FB68BA691A6202E0FB68BA695A6229
:100ED0007B6903F08003002B04D0FB68BA69C3F878
:100EE000842003E0FB68BA69C3F880207B6903F0C3
:100EF0000103002B06D0FB681A6FBB691A43FB681D
:100F00001A6706E0FB681A6FBB69DB431A40FB688F
:100F10001A677B6903F00203002B06D0FB685A6F47
:100F2000BB691A43FB685A6706E0FB685A6FBB69E6
:100F3000DB431A40FB685A6700BF3437BD4680BCAC
:100F4000704700BF80B48DB000AF78600B46FB7077
:100F50007B68FB62FB7887F82B30FB6A7B627B6ADD
:100F60003B623B6A5B09FB61FB6903F5001303F21B
:100F700007735B02BB6197F82B30012B09D1FB6A29
:100F80007B617B6903F01F0301229A40BB691A61F0
:100F90000CE097F82B30002B08D1FB6A3B613B69D2
:100FA00003F01F0301229A40BB695A61FB6AFB6090
:100FB000FB6803F01F0301229A40BB69C3F8A0201D
:100FC00000BF3437BD4680BC704700BF80B48BB0D3
:100FD00000AF78600B46FB707B687B62FB7887F81C
:100FE00023307B6AFB61FB69BB61BB695B097B6189
:100FF0007B6903F5001303F207735B023B6197F80B
:101000002330002B09D07B6AFB60FB6803F01F03D1
:1010100001229A403B691A6308E07B6ABB60BB68A7
:1010200003F01F0301229A403B695A6300BF2C372B
:10103000BD4680BC704700BF80B500AF1D481E4B49
:1010400098471E4B9847012157201D4B9847012177
:1010500057201C4B9847002102201A4B9847082123
:101060000220194B984701215420154B9847012124
:101070005420144B984701211020114B984701210F
:101080001020104B9847012156200D4B9847012105
:1010900056200C4B98470D4903200D4B98470B49A0
:1010A00004200B4B984708210220074B984700BFAC
:1010B00080BD00BF50140E40711F4000090E40005B
:1010C000CD0F4000450F4000290E400001000008F0
:1010D0004113400080B485B000AFF860B9607A6019
:1010E0007B68002B03D0FB68BA685A6602E0FB6895
:1010F000BA681A6600BF1437BD4680BC704700BF8F
:1011000080B487B000AFF860B9607A60FB687A6835
:101110005A64BB68B3F1C05F4AD0B3F1C05F08D86E
:10112000B3F1006F16D0B3F1805F2CD0002B69D0E3
:1011300064E0B3F1205F65D0B3F1205F03D8B3F171
:10114000005F4AD05AE0B3F1405F5BD0B3F1605F1B
:1011500058D053E0FB681B6F7B61FB681A6F7B689C
:10116000D9437B690B401A40FB681A67FB685B6FC9
:101170007B61FB685A6F7B68D9437B690B401A40DF
:10118000FB685A673AE0FB681B6F7B617A687B6992
:101190001A43FB681A67FB685B6F7B61FB685A6FD9
:1011A0007B68D9437B690B401A40FB685A6725E08E
:1011B000FB681B6F7B61FB681A6F7B68D9437B6997
:1011C0000B401A40FB681A67FB685B6F7B617A68AB
:1011D0007B691A43FB685A6710E0FB681B6F7B61F1
:1011E0007A687B691A43FB681A67FB685B6F7B61EF
:1011F0007A687B691A43FB685A6700BFFB687A68A4
:101200005A6000E000BF1C37BD4680BC704700BF7D
:1012100080B584B000AFF860B9607A60B968F868EA
:10122000194B98477B6803F001031A46B968F868C0
:10123000164B98477B6803F00A03002B03D0FB682A
:10124000BA681A6202E0FB68BA685A627B6803F007
:101250000203002B04D0FB68BA68C3F8802008E0C2
:101260007B6803F00803002B03D0FB68BA68C3F85F
:101270008420FB68BA685A61FB68BA681A6000BFCC
:101280001037BD4680BD00BFF5124000D5104000AC
:1012900080B584B000AFF860B9607A603B60B9682F
:1012A000F868124B9847BA69B968F868104B9847C4
:1012B0003B68002B03D0FB68BA681A6502E0FB6844
:1012C000BA685A657B68002B03D0FB68BA681A635A
:1012D00002E0FB68BA685A63FB68BA681A61FB6887
:1012E000BA681A6000BF1037BD4680BDF5124000D5
:1012F000D510400080B483B000AF786039607B685F
:101300003A685A6400BF0C37BD4680BC704700BFC6
:1013100080B483B000AF78607B68DB6C18460C3714
:10132000BD4680BC704700BF80B483B000AF78601A
:101330007B689B6C18460C37BD4680BC704700BF6D
:1013400090B587B002AF786039607868634B984792
:10135000F8603B6803F0F043B3F1005F67D0B3F18E
:10136000005F09D8B3F1805F2BD0B3F1C05F43D0E9
:10137000B3F1006F0AD0A9E0B3F1405F7ED0B3F1C2
:10138000605F7BD0B3F1205F6CD09FE07B6803F09F
:101390001F03012202FA03F31A464FF00061F868B6
:1013A0004F4B98477B6803F01F03012202FA03F3B7
:1013B00019463B6803F001031A46F868494B984701
:1013C00086E07B6803F01F03012202FA03F31A464A
:1013D0004FF08051F868424B98477B6803F01F0339
:1013E000012202FA03F319463B6803F001031A468F
:1013F000F8683C4B98476BE07B6803F01F030122C1
:1014000002FA03F31A464FF0C051F868344B98477C
:101410007B6803F01F03012202FA03F319463B68BD
:1014200003F001031A46F8682E4B984750E07B689A
:1014300003F01F03012202FA03F31A464FF0005192
:10144000F868274B98477B6803F01F03012202FAD4
:1014500003F319463B6803F001031A46F868214B71
:10146000984735E07B6803F01F03012202FA03F37B
:101470003A681946F8681C4B984729E07B6803F0E6
:101480001F03012202FA03F319463B6803F060537D
:10149000B3F1605F0CBF01230023DBB21A463B6847
:1014A00003F00403002B14BF01230023DBB2184612
:1014B0003B6803F00103002B14BF01230023DBB2C0
:1014C00000930346F868094CA04701E0002300E0C0
:1014D000012318461437BD4690BD00BFF1144000EB
:1014E00001114000D510400011124000911240003F
:1014F00080B485B000AF78607B685B0903F50013AA
:1015000003F207735B02FB60FB6818461437BD46A5
:1015100080BC704780B584B000AF7860396078686F
:101520002C4B9847F86078682B4B98470246FB682D
:101530001340FB60FB68002B3CD00023BB6034E011
:10154000264ABB681B0113441A683B689A4226D19D
:10155000224ABB681B01134404331A68FB6813401A
:10156000002B1CD01D4ABB681B0113440C331B68A5
:101570001A49BA6812010A4410681849BA68120177
:101580000A440432126811469847144ABB681B018A
:10159000134404331B68DB43FA681340FB60BB68E9
:1015A0000133BB60BB68062B03D8FB68002BC7D197
:1015B00000E000BF0A4B1B68002B07D0094B1B68DB
:1015C000002B03D0074B1B687868984700BF103783
:1015D000BD4680BD1113400029134000640800205F
:1015E000D8080020D408002080B500AF0B210248A5
:1015F000024B984700BF80BD000E0E4015154000FD
:1016000080B500AF0C210248024B984700BF80BD57
:1016100000100E401515400080B500AF0D210248A6
:10162000024B984700BF80BD00120E4015154000C8
:1016300080B485B000AF78601C491C4B1B6B23F055
:1016400070027B6813430B634FF40063FB6007E099
:10165000FB68002B01D1012323E0FB68013BFB6009
:10166000124B9B6E03F00803002BF1D00F4A0F4B77
:101670001B6B23F0030343F0020313634FF4006377
:10168000FB6007E0FB68002B01D1012309E0FB6848
:10169000013BFB60054B9B6E03F00803002BF1D070
:1016A000002318461437BD4680BC704700040E4026
:1016B00080B483B000AF78607B68012B07D1084A03
:1016C000074B9B6843F0254343F480139360044B1E
:1016D000044A1A6000BF0C37BD4680BC704700BF8B
:1016E00010140E40080000A580B400AF094B5B69E0
:1016F00003F08003002B07D0074B9B6E03F08003A1
:10170000002B01D0012300E000231846BD4680BC19
:10171000704700BF10140E4000040E4080B483B028
:1017200000AF7860184A184B1B6A43F45C1343F00F
:101730000803136200BF144B9B6E03F40033002BAD
:10174000F9D01149104B1B6A23F45C1323F070038A
:101750007A68134343F45C130B6200BF0A4B9B6E21
:1017600003F40033002BF9D0074A074B1B6A23F020
:101770009B7323F4803343F45C13136200BF0C3774
:10178000BD4680BC704700BF00040E4080B483B0EB
:1017900000AF786039607B68002B08D01649164B83
:1017A0001B6A164A1A40164B13430B621EE012497D
:1017B000114B1B6A23F45C1323F003033A681202F3
:1017C00092B2134343F45C1343F001030B6200BF76
:1017D000094B9B6E03F00103002BF9D0064A064B20
:1017E0001B6A43F09B7343F48033136200BF0C37D2
:1017F000BD4680BC704700BF00040E40FCFFC8FE21
:101800000200370180B400AF034B9B6E03F48033BA
:101810001846BD4680BC704700040E4080B400AF3F
:10182000034B4FF000529A6200BFBD4680BC704728
:1018300000040E4080B400AF034B9B6E03F0020324
:101840001846BD4680BC704700040E4080B400AF0F
:10185000034B0022DA6200BFBD4680BC704700BF68
:1018600000040E4080B400AF034B9B6E03F00403F2
:101870001846BD4680BC704700040E4080B483B05B
:1018800000AF78607B68222B01D901232FE07B68B1
:101890001F2B13D8184B9A6901217B6801FA03F3B7
:1018A0001A4001217B6801FA03F39A421ED0124AC2
:1018B00001217B6801FA03F3136117E07B68203B89
:1018C0007B600D4BD3F8082101217B6801FA03F3FB
:1018D0001A4001217B6801FA03F39A4206D0064AB6
:1018E00001217B6801FA03F3C2F800310023184696
:1018F0000C37BD4680BC704700040E4080B582B0F6
:1019000000AF78607868034B984700BF0837BD4642
:1019100080BD00BF7D18400080B582B000AF786008
:101920001520034B984700BF0837BD4680BD00BF58
:10193000FD18400080B483B000AF786039607B68E8
:101940005B6823F470227B685A607B685A683B6846
:101950001B0403F470231A437B685A6000BF0C37E2
:10196000BD4680BC704700BF80B483B000AF7860D4
:1019700039607B685B6823F07F427B685A607B68D4
:101980005A683B681B061A437B685A6000BF0C37D5
:10199000BD4680BC704700BF80B485B000AFF86022
:1019A000B9607A607B68002B0CD0FB68BA680C3297
:1019B00053F8223043F00101FB68BA680C3243F857
:1019C00022100BE0FB68BA680C3253F8223023F087
:1019D0000101FB68BA680C3243F8221000BF1437CB
:1019E000BD4680BC704700BF80B485B000AFF860D2
:1019F000B9607A607B68002B0CD0FB68BA680C3247
:101A000053F8223043F00201FB68BA680C3243F805
:101A100022100BE0FB68BA680C3253F8223023F036
:101A20000201FB68BA680C3243F8221000BF143779
:101A3000BD4680BC704700BF80B485B000AFF86081
:101A4000B9607A607B68042B18D1FB68BA680C32E5
:101A500053F8223023F00801FB68BA680C3243F8CF
:101A60002210FB68BA680C3253F8223043F00401AC
:101A7000FB68BA680C3243F822102AE07B68002B1E
:101A800018D1FB68BA680C3253F8223023F00801F1
:101A9000FB68BA680C3243F82210FB68BA680C3253
:101AA00053F8223023F00401FB68BA680C3243F883
:101AB00022100EE07B68082B0BD1FB68BA680C3251
:101AC00053F8223043F00801FB68BA680C3243F83F
:101AD000221000BF1437BD4680BC704780B485B06B
:101AE00000AFF860B9607A60FB68BA680C3253F8EE
:101AF000223023F0F001FB68BA680C3243F8221060
:101B0000FB68BA680C3253F822207B6842EA030172
:101B1000FB68BA680C3243F8221000BF1437BD4688
:101B200080BC704780B485B000AF786039603A6897
:101B30007B6813445A1E7B68B2FBF3F3FB60FB68BF
:101B4000002B02DDFB68FF2B02DD4FF0FF3301E0CD
:101B5000FB681BB218461437BD4680BC704700BFF7
:101B600080B485B000AFF860B9601346FB71FB79B3
:101B7000002B02D14FF0FF331BE0FB68BA680C3238
:101B800053F8223023F47F41FB68BA680C3243F8E3
:101B90002210FB68BA680C3253F82220FB791B0232
:101BA0009BB242EA0301FB68BA680C3243F8221088
:101BB000002318461437BD4680BC704780B485B0FA
:101BC00000AFF860B96011461A460B46FB71134628
:101BD000BB71FB68BA680C3253F8223099B2FB68CB
:101BE000BA680C3243F82210FB68BA680C3253F81A
:101BF0002220FB791B0403F47F03B97909060B4308
:101C000042EA0301FB68BA680C3243F8221000BFB5
:101C10001437BD4680BC704780B483B000AF786095
:101C20007B6808221A607B6820221A607B68042285
:101C30001A6000BF0C37BD4680BC704780B584B0C9
:101C400000AF786039600023FB607B684FF0FF32A3
:101C50009A627B681B6A78680E4B984778680E4BCF
:101C600098473B6859683B681B681A4678680B4B75
:101C700098470346012B01D10123FB603B685B7A47
:101C8000012B02D17B6840221A60FB68184610378E
:101C9000BD4680BD551F4000191C4000A11C4000DE
:101CA00080B487B000AFF860B9607A6000237B61D0
:101CB000BB68164A934201D9012321E0BB685B004F
:101CC0007A68B2FBF3F3043B3B6105E07B690133C7
:101CD0007B613B695B083B613B69FF2B02D97B69F8
:101CE000062BF3D93B69DAB23B691B029BB21A435C
:101CF0007B691B0403F4E0231A43FB681A61002389
:101D000018461C37BD4680BC704700BF801A0600CD
:101D100080B485B000AF786039603B68002B01D19A
:101D200000231DE07B681B78FB603B68012B09DD0D
:101D3000FB681B02FB607B6801331B781A46FB685B
:101D40001343FB603B68022B09DDFB681B02FB6051
:101D50007B6802331B781A46FB681343FB60FB6801
:101D600018461437BD4680BC704700BF80B588B0A8
:101D700000AF786039603B68DB68FB613B689B685B
:101D8000BB610023FB7543F698233B61FB69002B85
:101D900001D1012369E07B6800225A603B681B7C0B
:101DA0001B0403F4FE023B685B681B0203F44073F0
:101DB000134343F480527B685A607B680022DA60E8
:101DC0003A683B685B68194610462A4B98470246BA
:101DD0007B68DA60FB69012B05D17B6803221A60FE
:101DE0000123FB7534E07B6801221A600023FB7538
:101DF0002EE07B681B6AFB60FB6803F48073002B9A
:101E000001D0052331E03B695A1E3A61002B01D114
:101E100009232AE0FB69012B07D1FB7D002B04D1AC
:101E20007B6802221A600123FB75FB6803F0020342
:101E3000002B00D10CE0BB695A1CBA617A68126BA6
:101E4000D2B21A70FB69013BFB6143F698233B61F8
:101E5000FB69002BCDD100BF7B681B6A03F0010337
:101E6000002BF9D07B681B6A002318462037BD463B
:101E700080BD00BF111D400080B586B000AF786006
:101E800039603B68DB687B613B689B683B617B69D1
:101E9000002B01D1012356E07B6800225A603B6889
:101EA0001B7C1B0403F4FE023B685B681B0203F40B
:101EB00040731A437B685A607B680022DA603A6894
:101EC0003B685B6819461046214B984702467B6881
:101ED000DA6019E07B681B6AFB60FB6803F48073BF
:101EE000002B01D005232EE0FB6803F00403002B38
:101EF00000D109E03B695A1C3A611B781A467B689D
:101F00005A637B69013B7B617B69002BE2D17B6873
:101F10001B6AFB60FB6803F48073002B01D0052370
:101F200011E0FB6803F00403002B00D1EFE700BFD2
:101F30007B6802221A6000BF7B681B6A03F0010302
:101F4000002BF9D0002318461837BD4680BD00BFCE
:101F5000111D400080B483B000AF78607B688022A0
:101F60001A607B681B6B00BF0C37BD4680BC704796
:101F700080B483B000AF78607B684FF400425A6051
:101F800000BF0C37BD4680BC704700BF80B584B031
:101F900000AF274BFB60274BBB60FA68BB689A42D7
:101FA0000DD907E0BB681A1DBA60FA68111DF96007
:101FB00012681A60BB68204A9342F3D320E0FA68A3
:101FC000BB689A421CD21C4A1A4BD31A7B60FA682F
:101FD0007B681344043BFB60BA687B681344043B92
:101FE000BB600AE0BB681A1FBA60FA68111FF9608B
:101FF00012681A607B68043B7B607B68002BF1D120
:1020000000BF0E4BBB6004E0BB681A1DBA60002223
:102010001A60BB680A4A9342F6D30A4BFB600A4A2D
:10202000FB689360094B9847094B9847FEE700BF50
:102030000C2E400000000020480800204808002026
:10204000E40800200000400000ED00E0912C40007A
:10205000F528400080B400AFFEE700BF80B400AFB9
:102060005D4B1B6B03F00303032B00F2968001A270
:1020700052F823F085204000A5204000EF204000CA
:10208000EF204000554B5B6903F08003002B04D028
:10209000534B4FF400421A6080E0514B4FF4FA4228
:1020A0001A607BE04C4B1B6A03F08073002B03D05B
:1020B0004B4B4C4A1A6071E0494B4B4A1A60464BF5
:1020C0001B6A03F07003102B08D0202B0AD0002BC2
:1020D00000D00BE0424B444A1A6007E0404B434AB1
:1020E0001A6003E03E4B3F4A1A6000BF56E03A4B8D
:1020F0001B6A03F08073002B03D0394B394A1A60F6
:1021000019E0374B384A1A60334B1B6A03F07003EF
:10211000102B08D0202B0AD0002B00D00BE0304B26
:10212000314A1A6007E02E4B304A1A6003E02C4B0C
:102130002C4A1A6000BF284B1B6B03F00303022BD1
:1021400015D1254B9A6A2A4B13401B0C0133244AA4
:10215000126802FB03F3224A13601F4B9B6ADBB237
:102160001F4A1268B2FBF3F31D4A136016E01A4BC4
:10217000DA6A1F4B13401B0C0133194A126802FB29
:1021800003F3174A1360144BDB6ADBB2144A12687C
:10219000B2FBF3F3124A136000E000BF0E4B1B6B5F
:1021A00003F07003702B08D10D4B1B68114AA2FB82
:1021B00003235B080A4A13600AE0074B1B6B03F01A
:1021C00070031B09064A126822FA03F3044A1360DB
:1021D00000BFBD4680BC704700040E4010140E4086
:1021E00018040020001BB70000093D0000127A000F
:1021F0000000FF07ABAAAAAA80B483B000AF786042
:102200007B68224A934208D8214B4FF080621A60C3
:10221000204B4FF080621A6033E07B681E4A934285
:1022200006D81B4B1D4A1A601A4B1C4A1A6028E03C
:102230007B681B4A934206D8154B1A4A1A60154B05
:10224000184A1A601DE07B68174A934206D8104B63
:10225000164A1A600F4B154A1A6012E07B68144A3E
:10226000934208D80A4B4FF004221A60094B4FF0F2
:1022700004221A6005E0064B0E4A1A60054B0D4A0F
:102280001A6000BF0C37BD4680BC7047FF2C31017F
:10229000000A0E40000C0E40FF59620200010004CB
:1022A000FF86930300020004FFB3C404000300048C
:1022B000FFE0F5050005000480B483B000AF78604E
:1022C0007B68072B25D801A252F823F0ED224000AD
:1022D000F3224000F9224000FF2240000323400087
:1022E000072340000B2340000F2340004FF4FA4324
:1022F00010E04FF400430DE04FF400430AE0084BB8
:1023000008E0084B06E0084B04E0074B02E0064BF0
:1023100000E0002318460C37BD4680BC704700BF64
:1023200000093D0000127A00001BB70080B500AF25
:102330000620044B9847024613469B0013449B001B
:10234000184680BDB922400080B500AF024B9847C7
:1023500003465B08184680BD2D23400080B582B03F
:1023600000AF78607868034B984700BF0837BD46D8
:1023700080BD00BF7D18400080B48DB000AF786094
:102380000B46FB707B68FB62FB7887F82B30FB6A9F
:102390007B627B6A3B623B6A5B09FB61FB6903F51D
:1023A000001303F207735B02BB6197F82B30012B1C
:1023B00009D1FB6A7B617B6903F01F0301229A400C
:1023C000BB691A610CE097F82B30002B08D1FB6A2F
:1023D0003B613B6903F01F0301229A40BB695A61CC
:1023E000FB6AFB60FB6803F01F0301229A40BB6994
:1023F000C3F8A02000BF3437BD4680BC704700BF83
:1024000080B483B000AF78600B467B807A887B68AD
:10241000DA6000BF0C37BD4680BC704780B582B023
:1024200000AF78600B46FB70FB789BB2194678686A
:10243000024B984700BF0837BD4680BD01244000CD
:10244000F0B58DB000AF0346FB710123FB6007F1CF
:102450000C0319460020304B98470023FB620023F1
:1024600087F82B30FB6A7B627B6A3B623B6A5B09C5
:10247000FB61FB6903F5001303F207735B02BB61A9
:1024800097F82B30002B09D0FB6A7B617B6903F046
:102490001F0301229A40BB691A6308E0FB6A3B6193
:1024A0003B6903F01F0301229A40BB695A63FB7921
:1024B00019460020194B9847194B984703464FF08F
:1024C0000004DB1844EB0404A60046EA93769D0062
:1024D0005B1944EB06040EA2D2E900125D1844EB2E
:1024E0000206284631460F4C0F4A4FF00003A04722
:1024F00003460C4618460D4B984707F10C03194646
:1025000000200B4B984700BF3437BD46F0BD00BFDD
:102510007F9FD50000000000590D40001D244000A1
:102520004923400079294000809FD5000100002008
:10253000B10D400000000000F0B58DB000AF0346C3
:10254000FB710123FB6007F10C0319460020304B9F
:1025500098470023FB62012387F82B30FB6A7B62DC
:102560007B6A3B623B6A5B09FB61FB6903F5001315
:1025700003F207735B02BB6197F82B30002B09D085
:10258000FB6A7B617B6903F01F0301229A40BB69F0
:102590001A6308E0FB6A3B613B6903F01F030122F9
:1025A0009A40BB695A63FB7919460020194B98473A
:1025B000194B984703464FF00004DB1844EB040422
:1025C000A60046EA93769D005B1944EB06040EA232
:1025D000D2E900125D1844EB0206284631460F4C42
:1025E0000F4A4FF00003A04703460C4618460D4B18
:1025F000984707F10C03194600200B4B984700BF82
:102600003437BD46F0BD00BF7F9FD50000000000FD
:10261000590D40001D244000492340007929400005
:10262000809FD50001000020B10D400080B582B030
:1026300000AF0346FB71FB7903F00F03FB7197F9C1
:10264000073003F007035BB263F04F035BB2DBB20A
:102650001846034B984700BF0837BD4680BD00BFF2
:102660004124400080B582B000AF0346FB71FB7986
:1026700003F07F03FB71FB791B09DBB243F010030E
:10268000DBB21846064B9847FB7903F00F03DBB229
:102690001846034B984700BF0837BD4680BD00BFB2
:1026A0004124400080B582B000AF0023FB710023BD
:1026B000BB710023FB7116E0FB7918460D4B984760
:1026C00000200D4B98470023BB7105E000200B4B09
:1026D0009847BB790133BB7197F90630002BF5DAC7
:1026E000FB790133FB71FB79032BE5D900BF083778
:1026F000BD4680BD2D26400065264000392540009E
:1027000080B582B000AF78603960104B98470246C0
:102710003B681A603B6800225A727B680C4A9342FD
:1027200003D113200B4B984706E07B680A4A93427B
:1027300002D11420074B984739687868074B9847AF
:10274000034618460837BD4680BD00BF49234000F8
:10275000008001405D23400000C001403D1C40005E
:1027600080B584B000AF3B1D00221A605A609A60A9
:10277000064BBB6052233B733B1D19460448054B77
:10278000984700BF1037BD4680BD00BFA08601003E
:10279000008001400127400080B400AF024B1B784D
:1027A0001846BD4680BC7047DC08002080B58EB05E
:1027B00000AF07F11C0300221A605A609A60DA60C9
:1027C0001A6102233B6207F130037B620623BB627E
:1027D000522387F82C3000BF07F11C0319461C4810
:1027E0001C4B98470346002BF6D1002387F837305F
:1027F0000FE097F8373097F8372007F138010A448F
:1028000012F8081C144AD15497F83730013387F86E
:10281000373097F83730052BEBD900233B763B1D3B
:1028200000221A605A609A60DA601A610223BB6063
:1028300007F11803FB6001233B6152233B753B1DED
:1028400019460348054B984700BF3837BD4680BD41
:10285000008001406D1D4000DC080020791E400012
:1028600080B58CB000AF402387F82C30002387F868
:102870002D30002387F8283007F1140300221A6056
:102880005A609A60DA601A610223BB6107F12C0377
:10289000FB6102233B62522387F824303B4600222F
:1028A0001A605A609A60DA601A6102237B6007F14D
:1028B0002803BB600123FB6052233B7400BF07F178
:1028C0001403194609480A4B98470346002BF6D1D2
:1028D00000BF3B4619460548054B98470346002B69
:1028E000F7D100BF3037BD4680BD00BF008001403A
:1028F000791E400080B500AF114B9847114B9847A7
:10290000114B9847114B9847114B9847114B9847DB
:1029100001215720104B98470C4B98475F200F4BD5
:102920009847B0200E4B98470E4B98470E480F4BD8
:1029300098470F4B9847034618460E4B9847EBE7CE
:10294000050A40003910400011064000A52640004D
:10295000612740006128400079234000652640003F
:1029600041244000AD274000CC2D4000B50640007A
:10297000992740003925400053B94AB9002908BFBA
:1029800000281CBF4FF0FF314FF0FF3000F07EB940
:10299000ADF1080C6DE904CE00F006F8DDF804E0B6
:1029A000DDE9022304B070472DE9F0478C460E465E
:1029B0000446089D002B50D18A4217466CD9B2FAC2
:1029C00082FEBEF1000F0BD0CEF1200420FA04F4F9
:1029D00001FA0EF644EA060C02FA0EF700FA0EF4BB
:1029E0004FEA1749220CBCFBF9F01FFA87F809FBE4
:1029F00010C642EA064600FB08F3B34209D9F619AD
:102A000000F1FF3280F02281B34240F21F81023890
:102A10003E44F61AA2B2B6FBF9F309FB136642EA8A
:102A2000064403FB08F8A04509D9E41903F1FF3275
:102A300080F00A81A04540F20781023B3C44C8EB8C
:102A4000040443EA00400021002D62D024FA0EF471
:102A500000232C606B60BDE8F0878B4207D9002D06
:102A600055D0002185E841000846BDE8F087B3FA5B
:102A700083F1002940F09080B34202D3824200F2F9
:102A8000F880841A66EB03060120B446002D40D07E
:102A900085E81010BDE8F08712B90127B7FBF2F7FF
:102AA000B7FA87FEBEF1000F35D1F31B4FEA174886
:102AB0001FFA87FC0121B3FBF8F0220C08FB10364B
:102AC00042EA06460CFB00F3B34207D9F61900F1BF
:102AD000FF3202D2B34200F2CE801046F61AA2B202
:102AE000B6FBF8F308FB136642EA06440CFB03FC52
:102AF000A44507D9E41903F1FF3202D2A44500F23C
:102B0000B5801346CCEB040443EA00409CE7294619
:102B10002846BDE8F087CEF1200106FA0EF307FA49
:102B20000EF720FA01F94FEA1748CE4049EA0309A7
:102B3000B6FBF8FA4FEA194408FB1A661FFA87FC3D
:102B400044EA06430AFB0CF29A4200FA0EF40AD950
:102B5000DB190AF1FF3180F087809A4240F28480CD
:102B6000AAF1020A3B449B1A1FFA89F9B3FBF8F158
:102B700008FB113349EA034301FB0CF69E4207D9D7
:102B8000DB1901F1FF326BD29E4269D902393B4415
:102B90009B1B41EA0A418EE7C1F1200E22FA0EF496
:102BA0008B40234320FA0EF706FA01F44FEA134C48
:102BB00026FA0EF63C43B6FBFCF9270C0CFB196613
:102BC0001FFA83F847EA064609FB08F7B74202FAFC
:102BD00001F200FA01FA08D9F61809F1FF3041D2E2
:102BE000B7423FD9A9F102091E44F61BA0B2B6FBB9
:102BF000FCF40CFB146640EA064704FB08F8B845F1
:102C000007D9FF1804F1FF3028D2B84526D9023C75
:102C10001F4444EA0940C8EB0707A0FB02894F455F
:102C200044464E4614D329D065B3BAEB040367EB90
:102C3000060707FA0EFECB40CF404EEA030385E8B5
:102C400088000021BDE8F0871346F8E61046E0E66C
:102C5000B8EB020469EB03060138E5E70446D8E760
:102C6000114695E78146C0E78A467CE7023B3C4433
:102C700048E708460AE702383E442FE7C245E7D353
:102C80003E46D1E72946BDE8F08700BF704700BF48
:102C900070B50F4E0F4D761BB61018BF002405D02F
:102CA000013455F8043B9847A642F9D10A4E0B4D22
:102CB000761B00F095F8B61018BF002406D001343A
:102CC00055F8043B9847A642F9D170BD70BD00BFCE
:102CD000EC2D4000EC2D4000F42D4000EC2D400088
:102CE000024B13B1024800F005B870470000000025
:102CF000012D4000002301461A46184600F014B882
:102D000038B5074D074C2C1BA41005D0013C55F8D5
:102D1000043D9847002CF9D1BDE8384000F06AB86E
:102D2000042E4000002E40002DE9F047254C256878
:102D3000D5F848410646884692469946C4B360682D
:102D40001F2817DC431C76B104EB80050122C5F86F
:102D500088A0D4F8881182401143022EC4F888114B
:102D6000C5F808911ED00230636044F8208000202E
:102D7000BDE8F087144B03B34FF4C870AFF3008085
:102D80000446D0B1D5F84831002780E88800C5F85E
:102D9000484138460123C4F88871C4F88C71002E6C
:102DA000E1D0D1E7D4F88C110A43C4F88C21DAE7DA
:102DB00005F5A674C5F84841C1E74FF0FF30BDE8FE
:102DC000F08700BFDC2D400000000000582D617826
:102DD00069733A2000000000430000002004002036
:102DE000F8B500BFF8BC08BC9E467047E12C400017
:102DF000F1004000F8B500BFF8BC08BC9E46704723
:042E0000CD004000C1
:082E0400A4FBFF7F01000000A8
:102E0C0080B483B000AF7860BFF35F8F0138FBD123
:102E1C0000BF0C37BD4680BC704700BF9801002036
:102E2C009C010020A0010020A4010020AC01002086
:102E3C00B4010020BC010020C4010020C801002006
:102E4C00CC010020D0010020D4010020D8010020AA
:102E5C00DC010020E0010020E4010020E80100205A
:102E6C00F0010020F80100200002002008020020E0
:102E7C00100200201802002020020020280200204E
:102E8C0030020020380200203C02002040020020CA
:102E9C00480200205002002058020020600200204E
:102EAC006C020020740200207C02002084020020AE
:102EBC008C020020940200209C020020A40200201E
:102ECC00AC020020B0020020B8020020C00200209A
:102EDC00C8020020D0020020D8020020E00200200E
:102EEC00E8020020F0020020F8020020000300207D
:102EFC0008030020100300201803002020030020EA
:102F0C002803002030030020380300203C0300205D
:102F1C004003002044030020480300204C03002001
:102F2C005003002058030020600300206803002099
:102F3C0070030020780300207C0300208403002011
:102F4C008C03002090030020940300209C0300209D
:102F5C00A0030020A8030020B0030020B803002029
:102F6C00C0030020C8030020CC030020D4030020A1
:102F7C00D8030020E0030020E8030020F003002029
:102F8C00F8030020000400200404002008040020A2
:102F9C000C040020100400200200000001BE000000
:102FAC00030600060528FE28FE280000054854FEEE
:102FBC005424000005462610C8C40000056C92ACD1
:102FCC0040A000000106000003384482038244380C
:102FDC00032810280310381001C000000310101033
:102FEC000180000003C03806057CA2928A7C000098
:102FFC00050084FE800000000584C2A2928C0000B3
:10300C0005448292926C000005302824FE200000BA
:10301C00055E8A8A8A720000057C92929264000096
:10302C00050202F20A060000056C9292926C0000F6
:10303C00054C9292927C00000144000001C40000F7
:10304C0004102844820000000428282828000000CE
:10305C000482442810000000050402A2120C000097
:10306C0008384492AAAABA241800000005F81412D1
:10307C0014F8000004FE92926C000000047C828222
:10308C004400000004FE82827C00000004FE929248
:10309C008200000004FE121202000000057C8292E5
:1030AC0092F4000004FE1010FE0000000382FE8269
:1030BC00044080807E00000005FE10284482000041
:1030CC0004FE80808000000005FE040804FE000061
:1030DC0005FE041860FE0000047C82827C00000067
:1030EC0004FE12120C000000057C82A242BC0000FF
:1030FC0004FE1232CC000000044C929264000000DA
:10310C00050202FE02020000047E80807E000000A8
:10311C00050E30C0300E0000053EC038C03E000029
:10312C0005C6281028C60000050608F00806000091
:10313C0005C2A2928A86000003FE8282030638C072
:10314C00038282FE030402040380808002020400D6
:10315C0004708888F800000004FE88887000000065
:10316C00047088888800000004708888FE000000C5
:10317C000470A8A83000000003FC12020410A8A8D8
:10318C007800000004FE1008F000000001FA0000B6
:10319C0002807A0004FE20508800000001FE00002E
:1031AC0005F808F008F0000004F81008F000000022
:1031BC00047088887000000004F8282810000000B3
:1031CC0004102828F800000003F810080490A8A8A0
:1031DC004800000003087C8804788080F800000018
:1031EC0005186080601800000538C030C038000039
:1031FC0005885020508800000418A0A0780000001A
:10320C0003C8A89803106C8201FE000003826C10A6
:10321C00051008102010000000093D0000000000FF
:10322C00000000000C07002074070020DC070020C1
:10323C000000000000000000000000000000000082
:10324C000000000000000000000000000000000072
:10325C0000000000D82D400000000000000000001D
:10326C000000000000000000000000000000000052
:10327C000000000000000000000000000000000042
:10328C000000000000000000000000000000000032
:10329C000000000000000000000000000000000022
:1032AC000000000000000000000000000000000012
:1032BC000000000000000000000000000000000002
:1032CC0000000000000000000100000000000000F1
:1032DC000E33CDAB34126DE6ECDE05000B000000B6
:1032EC0000000000000000000000000000000000D2
:1032FC0000000000000000000000000000000000C2
:10330C0000000000000000000000000000000000B1
:10331C0000000000000000000000000000000000A1
:0400000500401F8D0B
:00000001FF
