:020000040040BA
:10000000C03E0020190F4000150F4000150F4000A2
:10001000150F4000150F4000150F400000000000B4
:10002000000000000000000000000000150F40006C
:10003000150F400000000000150F4000150F400094
:10004000150F4000150F4000150F4000150F400020
:10005000150F4000150F4000150F4000150F400010
:10006000150F4000150F4000000000007D0A400001
:10007000910A4000A50A4000150F4000150F4000EE
:100080000000000000000000150F4000150F4000A8
:10009000150F4000150F4000150F4000150F4000D0
:1000A000150F4000150F4000150F4000150F4000C0
:1000B000150F4000150F4000150F4000150F4000B0
:1000C000150F4000150F4000150F400010B5054CEE
:1000D000237833B9044B13B10448AFF300800123F4
:1000E000237010BDB80D0020000000004C604000DF
:1000F0000C4B43B10C480D4910B5AFF300800C48D0
:10010000036823B910BD0A48036833B97047094B27
:10011000002BF7D0BDE810401847064B002BF5D058
:10012000184700BF000000004C604000BC0D0020DC
:100130004C604000000000005D484FF001014FEAB4
:10014000413101605A484FF001014FEAC12101607D
:100150004FF000004FF01401002801D1554800E095
:1001600055484FF0010202FA01F2026053484FF085
:10017000010202FA01F202604FF000004FF0140198
:10018000012801D14E4800E04E484FF0010202FA2A
:1001900001F20260704746484FF001014FEA4131D9
:1001A000016043484FF001014FEAC12101604FF067
:1001B00000004FF01401002801D13E4800E03E4805
:1001C0004FF0010202FA01F202603C484FF00102D6
:1001D00002FA01F202604FF001004FF01401012811
:1001E00001D1374800E037484FF0010202FA01F22E
:1001F000026070472E484FF001014FEA4131016023
:100200002B484FF001014FEAC12101604FF000007F
:100210004FF01001002801D12B4800E02B484FF08F
:10022000010202FA01F2026029484FF0010202FACB
:1002300001F202604FF000004FF01001012801D1DF
:10024000244800E024484FF0010202FA01F2026063
:10025000704717484FF001014FEA413101601448DF
:100260004FF001014FEAC12101604FF000004FF053
:100270001001002801D1144800E014484FF0010299
:1002800002FA01F2026012484FF0010202FA01F292
:1002900002604FF001004FF01001012801D10D481C
:1002A00000E00D484FF0010202FA01F202607047CF
:1002B00010040E4010120E4014120E40A0120E40F8
:1002C00030120E4034120E40100E0E40140E0E402E
:1002D000A00E0E40300E0E40340E0E4070B582B0AF
:1002E000064602AC022344F8043D094D2146284647
:1002F000084B98474FF40012074B5A63EE605620A4
:10030000064B984721462846054B984702B070BDDA
:1003100000800040CD05400000120E40010000208A
:10032000FD054000F0B585B0254D4FF000466E63E9
:100330005620244CA0472E635620A047022704AE27
:1003400046F8047D204C2046204B98470025009518
:100350001F4B2A46314620461E4EB04701232360DC
:10036000A8201D4CA0471F20A047D320A047284607
:10037000A0474020A047A120A047C820A047DA20DE
:10038000A0473846A0478120A0478F20A047A4203F
:10039000A047A620A047D520A0478020A0478D20B9
:1003A000A0471420A047DB20A0474020A047D92029
:1003B000A047F120A047AF20A04705B0F0BD00BF87
:1003C00000120E400100002000800040F9044000AF
:1003D000404B4C004D054000DD0240000378002BEF
:1003E0004AD02DE9F04F83B08346244EDFF8A09029
:1003F00017E002AC022344F8043D21463046204B6E
:1004000098474FF40013C9F830300023F3605620AA
:100410001C4B9847214630461B4B98471BF8013F21
:100420003BB37E2BFAD8203B184A52F823703B7816
:10043000002BDED00124DFF848A017F8048002ADBD
:10044000022345F8043D29463046D0474FF40013B7
:10045000C9F83030C6F80C8056200A4B9847294618
:100460003046094B98470134E4B23B78A342E4D2CA
:10047000BFE703B0BDE8F08F704700BF00800040C9
:10048000CD05400001000020FD0540008C02002049
:1004900000120E4010B50E480E4B98473E2100202A
:1004A0000D4B98470D4CA0470028FCD00C4B9847AB
:1004B0000C4A0D4B9A620D4CA0470028FCD010202E
:1004C0000B4B98470B4B98470148024B984710BD80
:1004D000000E2707D51040001D0B4000710B400097
:1004E000810B4000013F132000040E40910B40009F
:1004F000B90A4000C50F400010B50446104B98479C
:1005000080232360636843F001036360636843F002
:1005100010036360636823F080036360002120465A
:10052000084B9847636823F002036360636823F015
:100530000403636000212046034B984710BD00BFB1
:10054000F50B4000050C40001B0C40002DE9F0416C
:1005500004460D46164615491846154B984707465A
:1005600000231A4629682046DFF85C80C04708222D
:10057000296820460F4B9847FAB2296820460E4B4F
:1005800098470822296820460C4B9847720829682A
:1005900020460B4B984786F0010202F001022968C1
:1005A0002046084B9847BDE8F08100BF000E2707A2
:1005B000C30C4000AF0C4000D90C4000690C400057
:1005C0002D0C40004B0C4000FF0C400008B5436868
:1005D00013F0040F06D009680F2900D908BD064B97
:1005E000984708BD09680329F8D8012303FA01F1E7
:1005F000C943014B9847F1E7050C400010B504468C
:10060000236913F4007FFBD00F212046024B98474B
:100610004FF08073236010BD050C4000F8B53848DA
:10062000384B98470B20384CA0470C20A0470D2092
:10063000A047364B4FF400021A631A61C3F8A0209A
:10064000334C04256561C4F8A0506566C4F8905029
:1006500065656562C4F88050226F22F0040222674B
:10066000626F22F0040262674FF480121A631A610B
:10067000C3F8A0204FF4803222632261C4F8A02086
:100680004FF480021A631A61C3F8A0204FF0006291
:100690000C212048204B9847204F39460320204EFC
:1006A000B04739462846B04739460C20B04739464E
:1006B0000D20B04739460E20B0474FF08051092039
:1006C000B04718490A20B04707F14057394655202E
:1006D000B04739465F20B04713494C20B0476566A4
:1006E000C4F8905065656562C4F88050236F23F0AC
:1006F00004032367636F23F004036367F8BD00BF3F
:1007000050140E400D0F4000A10B400000120E408F
:10071000000E0E4000100E403D0940000100000890
:100720001D08400001000010010000284264B1F1E2
:10073000C05F39D013D8B1F1006F25D0B1F1805F1F
:100740000AD1036F13430367436F416F0B4023EAE2
:1007500002034367426070470029FBD17047B1F143
:10076000205F20D009D8B1F1005FF3D1036F1343AC
:100770000367436F13434367ECE7B1F1405F12D067
:10078000B1F1605F0FD0E5E710B4016F046FD343A0
:1007900021401C4619400167436F416F0B402340C5
:1007A0004367426010BC7047036F016F0B4023EA40
:1007B00002030367436F13434367CBE7416412F0BF
:1007C000010F14BF4166016612F00A0F14BF0162E7
:1007D000416212F0020F07D112F0080F18BFC0F8E3
:1007E0008410416101607047C0F88010F9E710B4CF
:1007F000019C416444B9016643B1016542B941635A
:100800000161016010BC70474166F5E74165F5E79D
:100810000163F5E7C06C7047806C704770B582B0BB
:100820000D46430903F5001303F207735C0201F060
:10083000F043B3F1005F53D00AD8B3F1805F2DD0FD
:10084000B3F1C05F3BD0B3F1006F15D0002023E0BF
:10085000B3F1405F55D0B3F1605F52D0B3F1205F88
:10086000F4D100F01F0101262A4606FA01F12046C4
:100870002F4B984730460FE000F01F0001268640BE
:1008800032464FF0006120462A4B984715F0010F81
:1008900014BF66662666012002B070BD00F01F001E
:1008A0000126864032464FF080512046214B984722
:1008B00015F0010F14BF666626660120ECE700F014
:1008C0001F000126864032464FF0C0512046194B8A
:1008D000984715F0010F14BF666626660120DBE716
:1008E00000F01F000126864032464FF0005120469E
:1008F000104B984715F0010F14BF6666266601205D
:10090000CAE705F0605200F01F01012605EA060360
:100910000093C5F38003B2F1605F14BF002201228F
:1009200006FA01F12046044CA0473046B4E700BF68
:10093000BD0740002D074000EF07400070B582B0B2
:1009400005460E46144602F0F043B3F1005F3DD079
:100950000AD8B3F1805F21D0B3F1C05F2AD0B3F1E0
:10096000006F0ED0002017E0B3F1405F3AD0B3F132
:10097000605F37D0B3F1205FF4D1234B984701205B
:100980000AE00A464FF00061204B984714F0010F2F
:1009900014BF6E662E66012002B070BD0A464FF08D
:1009A00080511A4B984714F0010F14BF6E662E66E3
:1009B0000120F1E70A464FF0C051144B984714F05C
:1009C000010F14BF6E662E660120E5E70A464FF060
:1009D00000510E4B984714F0010F14BF6E662E663F
:1009E0000120D9E704F0605204F001030093C4F33E
:1009F0008003B2F1605F14BF002201223146284615
:100A0000034CA0470120C7E7BD0740002D07400069
:100A1000EF0740002DE9F84381460F46124B9847F7
:100A200005464846114B9847054013D0104C04F139
:100A3000600603E0B4420DD010345DB12068B842C6
:100A4000F8D161682942F5D0E3689847636825EAE0
:100A50000305EFE7074B1B6823B1074B1B680BB17E
:100A600048469847BDE8F88315084000190840003B
:100A7000D40D0020800E0020440E002008B50B216C
:100A80000148024B984708BD000E0E40150A400071
:100A900008B50C210148024B984708BD00100E40D4
:100AA000150A400008B50D210148024B984708BDC2
:100AB00000120E40150A4000174A136B23F0700312
:100AC00018431063936E13F0080F0AD14FF40063BC
:100AD00011498A6E12F0080F03D1013BF9D10120B0
:100AE00070470D4A136B23F0030343F002031363B3
:100AF000936E13F0080F0AD14FF4006306498A6E13
:100B000012F0080F05D1013BF9D1012070470020F8
:100B100070470020704700BF00040E40C8B9114A5A
:100B2000136A090289B223F45C1323F0030343F42C
:100B30005C1343F001030B431362936E13F0010F38
:100B4000FBD0084A136A43F09B7343F4803313626B
:100B5000704704490B6A044A1A40044B13430B6262
:100B6000704700BF00040E40FCFFC8FE02003701C2
:100B7000024B986E00F48030704700BF00040E40B6
:100B80004FF00052014B9A62704700BF00040E40C4
:100B9000024B986E00F00200704700BF00040E4048
:100BA00022281ED81F280CD8114B9A690123834094
:100BB000934318D0012303FA00F00D4B1861002075
:100BC000704720380A4BD3F8082101238340934310
:100BD0000BD0012303FA00F0054BC3F800010020FD
:100BE000704701207047002070470020704700BF09
:100BF00000040E4008B51520014B984708BD00BF02
:100C0000A10B4000436823F4702343604368090448
:100C100001F47021194341607047436823F07F431A
:100C20004360436843EA01614160704732B900EBB9
:100C30008100036B23F001030363704700EB810025
:100C4000036B43F001030363704732B900EB81008B
:100C5000036B23F002030363704700EB8100036B17
:100C600043F0020303637047042A03D06AB1082AE1
:100C700016D0704700EB8100036B23F00803036379
:100C8000036B43F004030363704700EB8100036BC5
:100C900023F008030363036B23F00403036370472B
:100CA00000EB8100036B43F008030363E1E700EB13
:100CB00081010B6B23F0F0030B630B6B1A430A6388
:100CC0007047431E1944B1FBF0F0431EFE2B94BF46
:100CD00000B24FF0FF30704772B110B4144600EB11
:100CE00081010B6B23F47F430B630A6B42EA0422FE
:100CF0000A63002010BC70474FF0FF30704710B4FB
:100D000000EB8101086B80B208630C6B44EA03635B
:100D100043EA02430B6310BC704700000F4B99423B
:100D200019D84900B2FBF1F2043AFF2A11D9002385
:100D300001335208FF2A01D9072BF9D1110289B2D8
:100D40001B0403F4E0230B43D2B21A4302610020D8
:100D500070470023F2E70120704700BF801A0600A9
:100D600038B504460D464FF0FF338362036A802393
:100D70000360036B082303602023036004230360E4
:100D80000A684968054B9847012814BF00200120D4
:100D90006B7A012B04BF4023236038BD1D0D40003A
:100DA0000A4659B103780129C4BF417841EA0323B7
:100DB000022A04DD827842EA032300E00023184679
:100DC00070470000F8B5CC68002C4FD00B460546A4
:100DD0008E68002068604A68120202F4407242F491
:100DE0008052097C090401F4FE010A436A60E8604C
:100DF00059681846224B9847E860012C0FD0012310
:100E00002B6000202B6A13F4807F36D143F69721A4
:100E100043F698274FF0010E4FF0020C19E0032320
:100E20002B600120EEE70A4670460CE008B9C5F8D1
:100E300000C013F0020FF6D070462B6B3370013CEC
:100E400001363A4664B12B6A13F4807F11D1511EEA
:100E50008AB1012CEAD013F0020FEED10A46F1E775
:100E60002B6A13F0010FFBD02B6A00E0012420460F
:100E7000F8BD0524FBE70924F9E70524F7E700BFDF
:100E8000A10D400070B5CD68002D35D00B4604464D
:100E90008E68002060600A7C120402F4FE02496839
:100EA000090201F440710A436260E0605968184623
:100EB000154B9847E060236A13F4807F06D0052520
:100EC0001BE05DB1236A13F4807F18D113F0040F87
:100ED000F7D033786363013D0136F2E7236A13F4F8
:100EE000807F0ED113F0040FF8D002232360236A11
:100EF00013F0010FFBD000E00125284670BD052549
:100F0000FBE70525F9E700BFA10D40004FF40043C2
:100F100043607047FEE7000008B5214B214A9A4222
:100F200028D9214B1E4A9A420CD2013B9B1A23F02E
:100F30000303043313441B4951F8040B42F8040B18
:100F40009A42F9D100BF194B194A9A420AD2013B81
:100F50009B1A23F0030304331344002142F8041BBB
:100F60009A42FBD1134B144A9A60144B9847144B86
:100F70009847FEE70A4B0B4A9A42E3D20A4B0848CD
:100F8000181A1146043A02440028DBD0C1F10401CA
:100F900052F8040943F8040DCA42F9D1D2E700BF60
:100FA000000000204C604000B80D0020BC0E002066
:100FB000B80D002000ED00E000004000FD1B4000E7
:100FC000E91140003C4B1B6B03F00303032B0ED8CD
:100FD000DFE803F0021C3838384B5B6913F0800FF0
:100FE00014BF4FF400424FF4FA42354B1A60324BB3
:100FF0001B6B03F07003702B55D02F4B1A6B3049CD
:10100000C2F302120B68D3400B6070472A4B1B6A75
:1010100013F0807F03D02B4A294B1A60E7E72A4A56
:10102000274B1A60244B1B6A03F07003102B05D06A
:10103000202BDCD1234A224B1A60D8E7234A204BCD
:101040001A60D4E71C4B1B6A13F0807F18D01D4A2E
:101050001B4B1A60184B1B6B03F00303022B164A41
:1010600007BF916A926AD16AD26A1548C1F30A41F0
:10107000036801FB0333D2B2B3FBF2F30360B6E7BC
:10108000114A0F4B1A600C4B1B6A03F07003102BB4
:1010900005D0202BDED10B4A094B1A60DAE70B4A48
:1010A000074B1A60D6E7064A13680949A1FB0313E8
:1010B0005B081360704700BF00040E4010140E4020
:1010C00008040020001BB70000093D0000127A0050
:1010D000ABAAAAAA1A4B984214D91A4B984219D90A
:1010E000194B98421DD9194B984221D9184B984257
:1010F00094BF4FF00423174B174A136002F5007298
:10110000136070474FF08063134A136002F500725A
:1011100013607047114B104A136002F500721360A0
:1011200070470F4B0C4A136002F500721360704752
:101130000C4B094A136002F500721360704700BF40
:10114000FF2C3101FF596202FF869303FFB3C404F1
:10115000FFE0F50500050004000A0E400001000450
:1011600000020004000300040A4B1B6853B1094B42
:101170001B681A180849914208DB1046054A10609E
:1011800018467047054A034B1A60F0E74FF0FF30EE
:10119000704700BF480E0020FC7F0220C03E0020A8
:1011A00070B582B0064602AC022344F8043D094DF6
:1011B00021462846084B98474FF40012074B5A63C4
:1011C000EE605620064B984721462846054B984727
:1011D00002B070BD00800040CD05400000120E40FE
:1011E00001000020FD0540002DE980488FB0804BB4
:1011F0009847804B9847804B98474FF00008DFF89E
:1012000024A24746DFF8189208F0070040F0B0002B
:10121000D0471020D0473846D0478026774DDFF89A
:1012200038B20EAC022344F8143D21462846D84774
:101230004FF40013C9F83030EF605620704B9847D8
:10124000214628466F4B9847013EEAD108F1010834
:10125000B8F1040FD8D100240B946B4B0A9352259C
:101260008DF82C50694B09931320694B984709A9B5
:101270006848694B984740238DF808308DF809403D
:101280008DF80440049408940223059302AA069260
:1012900007938DF8205009940D940A9301AB0B939A
:1012A00001230C938DF834505A4D5C4C04A9284608
:1012B000A0470028FAD1574D584C09A92846A04705
:1012C0000028FAD1564B4FF400021A61C3F8A0204F
:1012D000544C00264F4DDFF85C9104E0524B984788
:1012E0005248474B9847B020A047049608960223DF
:1012F000059302AB06930623079352238DF8203003
:101300004B4F04A92846B8470028FAD102AB494AF6
:101310000DF10E0013F8011B02F8011B8342F9D1F5
:101320008DF8046009960D9602230A9301AB0B9386
:1013300001230C9352238DF8343009A92846374BEA
:101340009847B020A0471020A0473046A047DFF8BC
:101350000CB1DFF80C8199F8002059464046DFF8BF
:1013600004A1D0473448354FB8474046B847B1206C
:10137000A0471020A0473046A04799F801205946C1
:101380004046D0472E48B8474046B847B220A0470D
:101390001020A0473046A04799F802205946404601
:1013A000D0472848B8474046B847B320A047102048
:1013B000A0473046A04799F8032059464046D047F9
:1013C0002148B8474046B84799F8043013F0010F58
:1013D0000CBF1E4B1E4B984799F804306FEA53031D
:1013E00003F00103002B7FF479AF1A4B984777E79E
:1013F000950440001D064000250340000080004089
:1014000001000020FD054000A0860100000E270716
:10141000A10B400000800140610D4000850E40009E
:1014200000120E40A1114000390140001C8A060044
:10143000C50D40008C0E0020685D4000DD034000BB
:10144000745D4000805D40008C5D4000F50140000F
:101450005302400097014000CD054000605D400010
:10146000840E0020E91C400081F0004102E000BF32
:1014700083F0004330B54FEA41044FEA430594EA54
:10148000050F08BF90EA020F1FBF54EA000C55EA8F
:10149000020C7FEA645C7FEA655C00F0E2804FEA60
:1014A0005454D4EB5555B8BF6D420CDD2C4480EA42
:1014B000020281EA030382EA000083EA010180EA72
:1014C000020281EA0303362D88BF30BD11F0004FC0
:1014D0004FEA01314FF4801C4CEA113102D04042F6
:1014E00061EB410113F0004F4FEA03334CEA133331
:1014F00002D0524263EB430394EA050F00F0A78049
:10150000A4F10104D5F1200E0DDB02FA0EFC22FA43
:1015100005F2801841F1000103FA0EF2801843FA37
:1015200005F359410EE0A5F120050EF1200E012A28
:1015300003FA0EFC28BF4CF0020C43FA05F3C01866
:1015400051EBE37101F0004507D54FF0000EDCF1DF
:10155000000C7EEB00006EEB0101B1F5801F1BD388
:10156000B1F5001F0CD349085FEA30004FEA3C0C8C
:1015700004F101044FEA445212F5800F80F09A8082
:10158000BCF1004F08BF5FEA500C50F1000041EB86
:10159000045141EA050130BD5FEA4C0C404141EB8A
:1015A000010111F4801FA4F10104E9D191F0000FB1
:1015B00004BF01460020B1FA81F308BF2033A3F134
:1015C0000B03B3F120020CDA0C3208DD02F1140C2B
:1015D000C2F10C0201FA0CF021FA02F10CE002F166
:1015E0001402D8BFC2F1200C01FA02F120FA0CFC5F
:1015F000DCBF41EA0C019040E41AA2BF01EB0451A8
:10160000294330BD6FEA04041F3C1CDA0C340EDCA5
:1016100004F11404C4F1200220FA04F001FA02F3E8
:1016200040EA030021FA04F345EA030130BDC4F1A6
:101630000C04C4F1200220FA02F001FA04F340EA9B
:101640000300294630BD21FA04F0294630BD94F04C
:10165000000F83F4801306BF81F480110134013D33
:101660004EE77FEA645C18BF7FEA655C29D094EAA4
:10167000050F08BF90EA020F05D054EA000C04BF22
:101680001946104630BD91EA030F1EBF002100200D
:1016900030BD5FEA545C05D14000494128BF41F0AC
:1016A000004130BD14F580043CBF01F5801130BD10
:1016B00001F0004545F0FE4141F470014FF000009B
:1016C00030BD7FEA645C1ABF194610467FEA655C4C
:1016D0001CBF0B46024650EA013406BF52EA0335EE
:1016E00091EA030F41F4002130BD00BF90F0000FDC
:1016F00004BF0021704730B54FF4806404F1320418
:101700004FF000054FF0000150E700BF90F0000FD0
:1017100004BF0021704730B54FF4806404F13204F7
:1017200010F0004548BF40424FF000013EE700BFC7
:1017300042004FEAE2014FEA31014FEA02701FBF57
:1017400012F07F4393F07F4F81F06051704792F029
:10175000000F14BF93F07F4F704730B54FF46074A3
:1017600001F0004521F0004120E700BF50EA0102EE
:1017700008BF704730B54FF000050AE050EA01029B
:1017800008BF704730B511F0004502D5404261EB0B
:1017900041014FF4806404F132045FEA915C3FF44C
:1017A000DCAE4FF003025FEADC0C18BF03325FEAE5
:1017B000DC0C18BF033202EBDC02C2F1200300FA9A
:1017C00003FC20FA02F001FA03FE40EA0E0021FABF
:1017D00002F11444C1E600BF70B54FF0FF0C4CF4A9
:1017E000E06C1CEA11541DBF1CEA135594EA0C0F5F
:1017F00095EA0C0F00F0DEF82C4481EA030621EA9A
:101800004C5123EA4C5350EA013518BF52EA0335D4
:1018100041F4801143F4801338D0A0FB02CE4FF086
:101820000005E1FB02E506F00042E0FB03E54FF0B6
:101830000006E1FB03569CF0000F18BF4EF0010EAE
:10184000A4F1FF04B6F5007F64F5407404D25FEAAA
:101850004E0E6D4146EB060642EAC62141EA55515D
:101860004FEAC52040EA5E504FEACE2EB4F1FD0C9F
:1018700088BFBCF5E06F1ED8BEF1004F08BF5FEA1D
:10188000500E50F1000041EB045170BD06F00046CF
:1018900046EA010140EA020081EA0301B4EB5C047C
:1018A000C2BFD4EB0C0541EA045170BD41F4801174
:1018B0004FF0000E013C00F3AB8014F1360FDEBF99
:1018C000002001F0004170BDC4F10004203C35DA75
:1018D0000C341BDC04F11404C4F1200500FA05F3F8
:1018E00020FA04F001FA05F240EA020001F0004299
:1018F00021F0004110EBD37021FA04F642EB06010F
:101900005EEA430E08BF20EAD37070BDC4F10C0438
:10191000C4F1200500FA04F320FA05F001FA04F2FC
:1019200040EA020001F0004110EBD37041F10001E8
:101930005EEA430E08BF20EAD37070BDC4F12005F3
:1019400000FA05F24EEA020E20FA04F301FA05F25B
:1019500043EA020321FA04F001F0004121FA04F203
:1019600020EA020000EBD3705EEA430E08BF20EAD3
:10197000D37070BD94F0000F0FD101F0004640000D
:1019800041EB010111F4801F08BF013CF7D041EA8F
:10199000060195F0000F18BF704703F00046520093
:1019A00043EB030313F4801F08BF013DF7D043EA64
:1019B0000603704794EA0C0F0CEA135518BF95EA1A
:1019C0000C0F0CD050EA410618BF52EA4306D1D1A1
:1019D00081EA030101F000414FF0000070BD50EAC0
:1019E000410606BF1046194652EA430619D094EA4A
:1019F0000C0F02D150EA013613D195EA0C0F05D134
:101A000052EA03361CBF104619460AD181EA030187
:101A100001F0004141F0FE4141F470014FF000003F
:101A200070BD41F0FE4141F4780170BD70B54FF0DA
:101A3000FF0C4CF4E06C1CEA11541DBF1CEA13555A
:101A400094EA0C0F95EA0C0F00F0A7F8A4EB05043C
:101A500081EA030E52EA03354FEA013100F0888033
:101A60004FEA03334FF0805545EA131343EA1263FC
:101A70004FEA022245EA111545EA10654FEA0026B1
:101A80000EF000419D4208BF964244F1FD0404F56A
:101A9000407402D25B084FEA3202B61A65EB0305C6
:101AA0005B084FEA32024FF480104FF4002CB6EB83
:101AB000020E75EB030E22BFB61A754640EA0C0003
:101AC0005B084FEA3202B6EB020E75EB030E22BF43
:101AD000B61A754640EA5C005B084FEA3202B6EB84
:101AE000020E75EB030E22BFB61A754640EA9C0043
:101AF0005B084FEA3202B6EB020E75EB030E22BF13
:101B0000B61A754640EADC0055EA060E18D04FEAD0
:101B1000051545EA16754FEA06164FEAC30343EA70
:101B200052734FEAC2025FEA1C1CC0D111F4801F3D
:101B30000BD141EA00014FF000004FF0004CB6E736
:101B400011F4801F04BF01430020B4F1FD0C88BFD5
:101B5000BCF5E06F3FF6AFAEB5EB030C04BFB6EBE0
:101B6000020C5FEA500C50F1000041EB045170BDD3
:101B70000EF0004E4EEA113114EB5C04C2BFD4EB00
:101B80000C0541EA045170BD41F480114FF0000E84
:101B9000013C90E645EA060E8DE60CEA135594EA00
:101BA0000C0F08BF95EA0C0F3FF43BAF94EA0C0F03
:101BB0000AD150EA01347FF434AF95EA0C0F7FF478
:101BC00025AF104619462CE795EA0C0F06D152EACC
:101BD00003353FF4FDAE1046194622E750EA4106B0
:101BE00018BF52EA43067FF4C5AE50EA41047FF4C1
:101BF0000DAF52EA43057FF4EBAE12E770B50F4E1E
:101C00000F4D761BB61018BF002405D0013455F8CF
:101C1000043B9847A642F9D10A4E0B4D761B04F0BF
:101C2000FFF9B61018BF002406D0013455F8043B64
:101C30009847A642F9D170BD70BD00BF2C6040002E
:101C40002C604000346040002C60400070B4860777
:101C500046D0541E002A41D0CAB2034602E014F115
:101C6000FF343BD303F8012B9D07F8D1032C2ED969
:101C7000CDB245EA05250F2C45EA054519D903F1F2
:101C800010022646103E0F2E42F8105C42F80C5C03
:101C900042F8085C42F8045C02F11002F2D8A4F1A8
:101CA000100222F00F0204F00F041032032C134430
:101CB0000DD91E462246043A032A46F8045BFAD898
:101CC000221F22F003020432134404F003042CB157
:101CD000C9B21C4403F8011B9C42FBD170BC704785
:101CE00014460346C2E700BF0EB4F0B59CB021AB6A
:101CF0000F4953F8042B019305466FF00044086820
:101D000002954FF402774FF6FF7602A90695ADF8DB
:101D1000147004940794ADF8166000F07FF8029BED
:101D200000221A701CB0BDE8F04003B0704700BF3D
:101D30000C04002000000000000000000000000073
:101D400090F800F06DE9024520F007016FF0000CFB
:101D500010F0070491F820F040F049804FF00004A3
:101D60006FF00700D1E9002391F840F000F108007E
:101D700082FA4CF2A4FA8CF283FA4CF3A2FA8CF3B6
:101D80004BBBD1E9022382FA4CF200F10800A4FA1D
:101D90008CF283FA4CF3A2FA8CF3E3B9D1E9042371
:101DA00082FA4CF200F10800A4FA8CF283FA4CF3A8
:101DB000A2FA8CF37BB9D1E9062301F1200182FA62
:101DC0004CF200F10800A4FA8CF283FA4CF3A2FA68
:101DD0008CF3002BC6D0002A04BF04301A4612BA76
:101DE000B2FA82F2FDE8024500EBD2007047D1E979
:101DF000002304F00305C4F100004FEAC50514F008
:101E0000040F91F840F00CFA05F562EA05021CBFD8
:101E100063EA050362464FF00004A9E72DE9F04F9D
:101E2000C3B00C460B9192460F930C9002F042FB0C
:101E300003681A931846FFF783FFA38919901906C0
:101E400003D52369002B01F0038000230DF1C8099D
:101E50001393159314932793269318931B93099325
:101E6000CDF89490C846169317939AF800305446CC
:101E7000E3B1252B02D119E0252B03D014F8013F43
:101E8000002BF9D1A4EB0A0585B1269B279AC8F847
:101E900000A001332A44072BC8F804502792269348
:101EA0007FDC08F10808099B2B4409932378002B59
:101EB0007FD000231A468DF8773019460D939B4644
:101EC0004FF0FF3063780A9004F1010A0AF1010A29
:101ED000A3F12000582800F2C183DFE810F0380297
:101EE000BF03BF034002BF03BF03BF03BF03BF0362
:101EF000BF0345020302BF035D006B02BF038602FE
:101F00009D039D039D039D039D039D039D039D03D1
:101F10009D03BF03BF03BF03BF03BF03BF03BF03D3
:101F2000BF03BF03BF0337035703BF035703BF03F9
:101F3000BF03BF03BF039803BF03BF03AD03BF03CA
:101F4000BF03BF03BF03BF035902BF03BF031E0389
:101F5000BF03BF03BF03BF03BF03BF03BF03BF0371
:101F6000BF03BF03C602DB025703570357038B02AD
:101F7000DB02BF03BF039002BF039D02CC01B4028A
:101F80000802BF03E101BF037E00BF03BF030D02D0
:101F90000D980F9340420D904BF0040B9AF80030CF
:101FA00094E725AA0B990C9803F06EFB40B9C8463C
:101FB00079E7279B23B10C980B9925AA03F064FBC2
:101FC0000B9B9B8913F0400F099B18BF4FF0FF3309
:101FD0000993099843B0BDE8F08F1BF0200F1193CF
:101FE00040F0DD810F9A1BF0100F134640F06E8514
:101FF0001BF0400F00F06A8514880432002501238D
:102000000F9200278DF877700A994A1C00F06582BC
:102010002BF08002079254EA050240F06482002906
:1020200040F03C84002B40F0D7841BF001030E935A
:1020300000F0048642AE302306F8413D0A9B0E9A1A
:102040009342B8BF134608930023129317B1089B1D
:1020500001330893079B13F00203109302D0089BEF
:1020600002330893079B13F0840540F00E830D9B09
:10207000089AA3EB020BBBF1000F40F30683BBF100
:10208000100F279C269A29DD43462146A846102793
:102090000C9C0B9D06E0ABF1100BBBF1100F03F194
:1020A000080318DD0132B74826921031072A27911C
:1020B00083E88100EFDD25AA2946204603F0E4FAF3
:1020C00000287FF47DAFABF1100BBBF1100F279907
:1020D000269A4B46E6DC45460C4698460132A94B0B
:1020E00026925C44072A279488E8080800F398841D
:1020F0009DF8777008F1080877B1269B0133013409
:102100000DF177010122072B2794269388E806001A
:1021100000F3DB8308F10808109B6BB1269B0133A9
:1021200002341EA90222072B2794269388E8060072
:1021300000F3D68308F10808802D00F015830A9B70
:102140000E9A9F1A002F36DD102F269B8E4D27DD0D
:1021500042462146B0464FF0100B2E460C9C0B9D7C
:1021600004E0103F102F02F1080215DD0133103199
:10217000072B2791269382E84008F2DD25AA2946FD
:10218000204603F081FA00287FF41AAF103F102F89
:102190002799269B4A46E9DC35460C46464690463A
:1021A00001333C44072B2794269388E8A00000F3D2
:1021B000818308F10808079BDF0500F16882269BF0
:1021C0000E99C8F8006001330C44072B2794C8F817
:1021D0000410269300F34D8308F10808079B5B0762
:1021E0003AD50D9B089A9D1A002D35DD102D269BA2
:1021F00020DD10260C9FDDF82CB004E0103D102DE2
:1022000008F1080816DD01335E4A26931034072BC7
:10221000279488E84400F1DD25AA5946384603F0A2
:1022200033FA00287FF4CCAE103D102D279C269B5E
:10223000C846E8DC0133534A26932C44072B2794E5
:1022400088E8240008DD25AA0B990C9803F01CFAF5
:1022500000287FF4B5AE279C099B0D9A08998A4205
:10226000ACBF9B185B180993002C40F00D83002332
:102270002693C846F9E511931BF0200340F0E38153
:102280001BF0100240F02E841BF0400300F02A8463
:102290000F9913460A4604320C880F920025B0E6C7
:1022A0000F9A1193166800248DF87740151D002EA3
:1022B00000F0A7860A9A531C00F009862146304692
:1022C00002F0D6FB002800F0E186831B0E930A94EF
:1022D0000F95CDF81CB023EAE373089312949DF890
:1022E0007770B3E69AF8003001222B21EEE54BF02F
:1022F000200B9AF80030E9E51193002A40F0958709
:10230000224B18931BF0200F40F011810F9A1BF005
:10231000100F134640F0E1831BF0400F00F0DD8307
:10232000043314880F9300251BF0010F00F00C817B
:1023300054EA050300F0088130239DF844208DF80D
:1023400078308DF879204BF0020B022359E69AF889
:10235000003000297FF4BAAD01222021B6E54BF010
:10236000010B9AF80030B1E50F9C23680D931846D5
:102370000028234603F10403FFF60AAE0F939AF8F0
:102380000030A3E5E05D4000F05D4000C05D40002E
:102390004BF0100B1BF0200F11933FF423AE0F9D59
:1023A000073525F0070303F10802D3E900450F9232
:1023B000012326E69AF800302A2B0AF1010400F0E6
:1023C0002787A3F130000928A24600F2AD8600233A
:1023D0001C461AF8013B04EB840400EB4404A3F10F
:1023E00030000928F5D90A9472E54BF0800B9AF871
:1023F00000306BE54BF0400B9AF8003066E59AF838
:1024000000306C2B03BF9AF801304BF0200B0AF11F
:10241000010A4BF0100B59E5002A40F011871BF020
:10242000200F40F0F9841BF0100F40F0AC841BF03B
:10243000400F00F0A8840F9A136804320F92BDF881
:1024400024201A8011E50F99B34B0C6818933022A1
:10245000782304318DF8793011934BF0020B0F91F2
:1024600000258DF878200223CBE50F9911930A6897
:102470008DF8A02000230A461F468DF877300432DD
:1024800001230893CDF81CB00A9712970F920E9370
:1024900028AEDFE51193002A40F0EA861BF0200FFA
:1024A0005DD11BF0100F40F008831BF0400F00F0CF
:1024B00004830F99B1F900400431E51722462B46F9
:1024C0000F91002A73F1000358DB0A999DF8777089
:1024D0004A1C4FF001037FF49BAD54EA050200F063
:1024E000DF81CDF81CB0012B00F07B82022B40F085
:1024F000068218984E46230904F00F0143EA05733B
:102500002A091C461546435C06F8013D54EA0503BA
:10251000F1D1A9EB06030E9390E51193002A40F048
:10252000A3867E4B18931BF0200F3FF4EFAE0F9D58
:10253000073525F0070303F108021BF0010F0F9286
:10254000D3E900457FF4F4AE02235AE51193002A43
:1025500040F086864BF0100B1BF0200FA1D00F9D92
:10256000073525F00705D5E90023002A05F1080104
:102570001D4673F100030F911446A6DA2D2764421D
:1025800065EB45058DF8777001233DE51193002A31
:1025900040F062860F9D073525F0070303F108021E
:1025A0000F921A6815925B681493149B159D23F083
:1025B0000044284621464FF0FF32594B03F00AFAF7
:1025C000002840F04A83284621464FF0FF32544B02
:1025D00003F0E2F9002840F0408315A80DC81499D3
:1025E00003F0D0F9002840F030859DF877704D4E0B
:1025F0004D4B2BF080000790119803220021089288
:102600000A914728D8BF1E460E9212911EE54BF044
:10261000080B9AF8003059E4A3F1300000231C465F
:102620001AF8013B04EB840400EB4404A3F13000EE
:102630000928F5D90D944BE44BF0100B11931BF0C6
:1026400020033FF41DAE0F9D073525F0070303F16E
:102650000802D3E900450F920023D2E41193002A27
:1026600040F0E785119A002A3FF4A3AC0023012132
:102670001F4608918DF8A020CDF81CB08DF877305A
:102680000A9312930E9128AEE4E4279C34E5119B43
:10269000652B40F3A78015A80DC8149903F068F9BD
:1026A000002800F05081269B204AC8F80020013302
:1026B00001340122072B27942693C8F8042000F345
:1026C0006A8308F108081F9B139A279C934203DB37
:1026D000079BDD077FF582AD269B19991A9AC8F8EA
:1026E000002001330C44072BC8F8041027942693CC
:1026F00000F39E8308F10808139B5E1E002E7FF7EF
:102700006DAD102E269B0A4D40F3F5812246102711
:10271000DDF830B00B9C13E0C05D4000AC5D4000C4
:10272000FFFFEF7FA05D40009C5D4000DC5D40004E
:10273000F05D400008F10808103E102E40F3DA81E9
:1027400001331032072B2792269388E8A000F1DD91
:1027500025AA2146584602F097FF00287FF430ACA6
:10276000279A269BC846E7E70D9B089A9F1A002FD9
:102770007FF7E5AC102F269BB64D27DD424621465C
:10278000B0464FF0100B2E460C9C0B9D04E0103F02
:10279000102F02F1080215DD01331031072B2791AC
:1027A000269382E84008F2DD25AA2946204602F059
:1027B0006BFF00287FF404AC103F102F2799269B55
:1027C0004A46E9DC35460C464646904601333C44D1
:1027D000072B2794269388E8A00000F3328208F1A3
:1027E0000808ACE4139B269F012B40F3FE810137C0
:1027F00001340123072F27942697C8F80060C8F8F2
:10280000043000F3038208F10808199A1A9BC8F8EB
:10281000003001371444072F27942697C8F8042066
:1028200000F3008208F1080815A80DC8149903F0F8
:102830009FF8139B002840F00181013B01370136CE
:102840001C44072F26972794C8F80060C8F8043066
:1028500000F3278108F108081B9AC8F80420013703
:10286000144421AB072F27942697C8F800307FF730
:10287000B3AC25AA0B990C9802F006FF00287FF450
:102880009FAB279CC846A9E425AA0B990C9802F097
:10289000FBFE00283FF4EBACFFF792BBDDF81CB069
:1028A000012B00F03481022B25D1CDF81CB000247F
:1028B00000251EE625AA0B990C9802F0E5FE0028DB
:1028C0007FF47EAB279CC84675E425AA0B990C982B
:1028D00002F0DAFE00287FF473AB279CC8461BE4A5
:1028E00025AA0B990C9802F0CFFE00287FF468AB64
:1028F000279CC84620E4CDF81CB00024002549469A
:1029000000E03146E20842EA4572E80804F00703B5
:1029100005461446303354EA050201F8013C01F142
:10292000FF36EED1079AD2077FF5F3AD302B3FF497
:10293000F0AD0239302306F8013CA9EB01030E93F8
:102940000E46FFF77BBB1F99002940F32E82129B96
:10295000139A9342A8BF1346002B1F460DDD269BFA
:10296000C8F8006001333C44072B2794C8F8047072
:10297000269300F31F8308F10808129B002FA8BFBD
:10298000DB1B002B1F4640F3D680102F269B314DBA
:1029900040F3ED8142462146B0464FF0100B2E46E3
:1029A0000C9C0B9D04E00832103F102F40F3DB819C
:1029B00001331031072B2791269382E84008F2DD7E
:1029C00025AA2946204602F05FFE00287FF4F8AAD7
:1029D0002799269B4A46E7E70A9B0E934E46FFF748
:1029E0002DBB002D08BF0A2CC0F08F804E4620461C
:1029F00029460A22002303F02BF8303206F8012D75
:102A00002046294600230A2203F022F804460D46F8
:102A100054EA0503EBD1A9EB06030E93FFF70EBBB7
:102A200025AA0B990C9802F02FFE00287FF4C8AA63
:102A30009DF87770279CC846FFF75EBB5E1E002E90
:102A40007FF70AAF102E034D22DD22464FF0100B08
:102A50000C9C06E0F05D4000103E102E08F10808C6
:102A600015DD01371032072F2792269788E82008B6
:102A7000F2DD25AA0B99204602F006FE00287FF41D
:102A80009FAA103E102E279A269FC846E9DC1446BE
:102A900001373444072F2794269788E860007FF792
:102AA000D9AE25AA0B990C9802F0EEFD00287FF410
:102AB00087AA279C269FC846CEE60F9A146813461D
:102AC0000433E5170F9322462B46FAE404321C68C0
:102AD0000F9201230025FFF794BA1C6804330F936B
:102AE000002521E40F990A4604320C680F92002554
:102AF000FFF787BA144601333444072B27942693F3
:102B000088E860007FF768ABB3E6DDF81CB0CDF86D
:102B10001CB042AE3034012306F8414D0E93FFF74E
:102B20008DBA25AA0B990C9802F0AEFD00287FF40F
:102B300047AA279CC8461F9A139B9A4244DB079BCF
:102B4000D90741D4139B12989A1A1D1A9542A8BF0F
:102B50001546002D0EDD2699C8F8045001310644B3
:102B60002C440729C8F800602794269100F33B8283
:102B700008F10808002DACBF561B1646002E7FF743
:102B80002DAB102E269BB04DB5DD22461027DDF86B
:102B900030B00B9C04E008F10808103E102EA9DDAF
:102BA00001331032072B2792269388E8A000F2DD2C
:102BB00025AA2146584602F067FD00287FF400AAA6
:102BC000279A269BC846E8E7269B19981A99C8F8C1
:102BD000001001330444072B2794C8F804002693FF
:102BE00000F3F58108F10808ACE7079BDA073FF529
:102BF000FEAD013701340123072F27942697C8F82B
:102C00000060C8F804307FF725AE4AE725AA0B9983
:102C10000C9802F039FD00287FF4D2A9279C269F4A
:102C2000C846F2E525AA0B990C9802F02DFD002864
:102C30007FF4C6A9279C269FC846F5E54E46FFF7B8
:102C4000FDB925AA0B990C9802F01EFD00287FF40F
:102C5000B7A9279CC846FFF772BA159C22462046A2
:102C6000149C2346214602F0B5FE002840F08682DF
:102C70000A9B0133119B23F020030E9300F0E281A5
:102C8000472B00F01E814BF480730793149B1F1E8B
:102C9000159B0893BBBF3B4603F1004700232D2340
:102CA0001093119B662B00F0BB81462B00F0DF8058
:102CB0000E9B089A452B0CBF0A9B0A9D23A820A9AE
:102CC00008BF5D1C049003911FA802213B4602909F
:102CD000019500910C9800F073FB119B672B064641
:102CE00040F0E0811BF0010F00F046827419169A43
:102CF0000898179B394602F03BFE002840F065819A
:102D0000239BA34206D230215A1C23921970239B85
:102D10009C42F9D89B1B13930E9B472B00F0E98034
:102D2000119B652B40F3CD81119B662B1F9B12934A
:102D300000F09E81139B129A1946914200F38A81FA
:102D40001BF0010F40F0138222EAE273089367231D
:102D50000E921193109B002B40F0C4800A939DF8B3
:102D60007770FFF773B935460C46464690460133F7
:102D70003C44072B2794269388E8A0003FF7D1AE68
:102D800008F10808D7E60F9A136804320F92099ADF
:102D90001A60FFF76AB825AA0B990C9802F074FC28
:102DA00000287FF40DA9C8468DE4269B274AC8F861
:102DB0000020013301340122072B27942693C8F801
:102DC000042072DC08F1080829B9139B1BB9079B82
:102DD000D8077FF503AA269B19981A9AC8F80020ED
:102DE000013302462244072B2792C8F80400269399
:102DF00000F38D8108F108080029C0F2658113995C
:102E0000C8F8006001338C18072B27942693C8F864
:102E100004107FF7E1A92CE50F9A09991368CD17E3
:102E20000846043229460F92C3E90001FFF71DB896
:102E300025AA0B990C9802F027FC00287FF4C0A863
:102E4000279CC84658E400BFF05D4000DC5D4000B0
:102E500040210C9801F040FB0B9A10601061002893
:102E600000F0F2810B9A40235361FEF7EEBF23A8D6
:102E700020A90A9C049003911FA803210290089A9C
:102E800001943B4600910C9800F09AFA25460646BC
:102E9000119B462B06EB05047FF429AF3378302BCA
:102EA00000F078811F9D2C4421E725AA0B990C98EE
:102EB00002F0EAFB00287FF483A81F99279CC846EC
:102EC00082E70A9B002B08BF01230A93DBE630460A
:102ED0000A94FEF735FF0F950E90CDF81CB003460F
:102EE000FFF7F9B92D2700238DF877700A93FFF7C4
:102EF000AEB81F9B12931A46033304DB0A9B194694
:102F00009142BFF617AF119B023B11939DF84430DD
:102F10008DF88430129B013B002B1F93BDBF129B89
:102F2000C3F101032D222B22092B8DF8852040F3BC
:102F300016810DF193042046AB4D00E0104685FB51
:102F40000312D917C1EBA20101EB8102A3EB4202EC
:102F50003032092900F8012C0B4600F1FF32EDDC7C
:102F600030330238D9B2844202F8011C40F2658144
:102F70000DF18600134601E013F8011B00F8011B58
:102F8000A342F9D101339B1A0DF18602134421AA01
:102F90009B1A139A1B93012A13440E9340F3198131
:102FA0000E9B199A13440E9323EAE37308930023AC
:102FB0001293CFE625AA0B990C9802F065FB002826
:102FC0007EF4FEAF279CC846D7E42346A2E625AA96
:102FD0000B990C9802F058FB00287EF4F1AF1F9A71
:102FE000279CC846AEE525AA0B990C9802F04CFB2D
:102FF00000287EF4E5AF1F9A139B279C9A1AC846B7
:10300000B8E50A9B1296062B28BF06230A96374678
:1030100008930F95CDF81CB00E93744EFFF716B8B9
:1030200023A820A90A9D049003911FA803210290C0
:10303000089A01953B4600910C9800F0C1F90646AC
:1030400044192BE706230A931DE62D278DF8777088
:10305000FFF7CDBA199A139B1344129A0E93002AC4
:1030600040F3B08023EAE37308936723119371E67A
:10307000002B40F3C3800A9A002A40F099801BF08D
:10308000010F40F0958008930E9363E60A9B089326
:103090000E930A900F95CDF81CB012909DF87770A2
:1030A000FEF7D4BF119B472B7FF420AE1BF0010F1E
:1030B0007FF4EEAE239B9B1B13930E9B472B3FF499
:1030C00018AF1F9B129321E74F421031484D2FDA62
:1030D0001024DDF830B004E008F10808103F102F8C
:1030E00026DD01331032072B27922693C8F80050B3
:1030F000C8F80440F0DD25AA0B99584602F0C4FA3E
:1031000000287EF45DAF279A269BC846E6E725AAED
:103110000B990C9802F0B8FA00287EF451AF1F9971
:10312000279A269BC84667E600200A90FEF7D0BE85
:1031300001333A44072B88E8A0002792269308F130
:1031400008087FF75CAE25AA0B990C9802F09CFA50
:1031500000287EF435AF279A269BC8464FE63033C9
:1031600030228DF887308DF8862022AB0FE7129B36
:10317000199A13440E9375E7239BCBE5149B1D4EC0
:10318000002BB6BF2D279DF877708DF877701A4BFE
:10319000FFF72FBA169A0898179B394602F0E8FBFA
:1031A00000287FF47FAEC5F101051F952C449EE5F4
:1031B000129B199A13440A9A1A4422EAE2730E9255
:1031C0000893C7E5129B0E9AC3F101031A441346F4
:1031D000D0E71BF0010312937FF4E2AE0E9B23EACB
:1031E000E3730893B6E500BF67666666D45D40008A
:1031F000F05D4000A85D4000A45D40000A9B13B94B
:103200001BF0010F02D0199B0133D4E701233AE7E9
:103210000F9D9AF80130286840EAE0700A9028462D
:103220000430A2460F90FEF751BE8DF87710FFF7DD
:1032300067B88DF87710FFF715BA0DF18603A6E68B
:103240008DF87710FFF7EBB80C9A0C2313604FF052
:10325000FF330993FEF7BDBE8DF87710FFF79AB9DB
:103260008DF87710FFF776B98DF87710FFF759B919
:103270008DF87710FFF712B9024B13B1024800F036
:1032800005B87047000000001542400000230146C9
:103290001A46184602F084BA02690B69934200F399
:1032A0008D802DE9F04F03F1FF3801F1140700F193
:1032B000140B57F828205BF828304FEA880483B0B5
:1032C0000132B3FBF2F90BEB0403009407EB040AA1
:1032D0000193B9F1000F39D000252E46BC46DE46D9
:1032E0005CF8044BDEF80030A2B209FB0255220C58
:1032F0002C0C09FB0242ADB2751B96B2C6EB13460D
:1033000015FA83F306EB23469BB243EA0643E245F4
:103310004FEA12454EF8043B4FEA2646E0D2009BA6
:103320005BF8033093B9019C231F9B450CD254F8E2
:10333000043C4BB9A4F1080302E01A68043B1AB933
:103340009B4508F1FF38F8D3C0F81080044601F01F
:10335000E7FE00282EDB09F101095D46002357F83E
:10336000041B28688AB29A1A0B0C12FA80F2C3EB7B
:10337000104303EB224392B242EA0342BA4545F8B6
:10338000042B4FEA2343EAD25BF828200BEB880397
:1033900082B91A1F93450BD253F8042C42B9083B4B
:1033A00002E01A68043B1AB99B4508F1FF38F8D3CC
:1033B000C4F81080484603B0BDE8F08F0020704785
:1033C0002DE9F04F016C9BB00446279E92469B4628
:1033D00041B1426C4A60012393408B6001F0C8FC0C
:1033E00000232364BBF1000F5D4635DB002333600F
:1033F0009D4BAB4315D0504659460022002302F0A6
:10340000B7FA804600282DD0269A01231360289B06
:10341000002B00F0BD809548186001381BB0BDE856
:10342000F08F269A42F20F731360BAF1000F0DD19C
:10343000C5F3130555B9289B8D48002BEED000F13C
:103440000803289A13601BB0BDE8F08F289B8948B9
:10345000002BE3D0C31CF4E701232BF000453360BD
:10346000AB46C5E718AA19AB0192009352465B46DA
:10347000204601F0F5FE2B0D814671D0CBF31302EF
:1034800042F07F51189FCDF850805046A3F2FF368E
:1034900041F440110022784BFDF7EAFF6CA3D3E919
:1034A0000023FEF799F96CA3D3E90023FDF7E2FFAF
:1034B000CDE902013046FEF729F969A3D3E90023DB
:1034C000FEF78AF902460B46DDE90201FDF7D2FF5D
:1034D000CDE9040102F094FA002202900023DDE914
:1034E000040102F04FFA002840F07381029D162D6E
:1034F00000F25D81614B03EBC503D3E90001524645
:103500005B4602F05DFA002800F0C5816B1E029355
:1035100000230E93BF1B7B1E069300F154810023F2
:103520000893029B002BC0F24581069A0D93114629
:103530001944002306910C93249B092B2AD8052BB0
:1035400040F35B86043B24930025249B023B032B22
:1035500000F24286DFE813F0D403C902DF036104FE
:10356000189F199E3E4406F23243202B40F38E8171
:10357000C3F1400306F212409D402AFA00F02843AE
:10358000FEF7B4F80123013EA1F1F871149381E72D
:103590003B4843E7002161642046259101F0C2FBCE
:1035A0004FF0FF330A93259A0F9301230490206470
:1035B00024920B93199B002BC0F2D980029A0E2AF9
:1035C00000F3D5802D4B03EBC203D3E90023CDE9F3
:1035D0000823259B002BC0F2BA83DDE9085650462C
:1035E0002A4633465946FEF721FA02F009FA804688
:1035F000FEF78CF82A463346FEF7EEF80B460246F5
:1036000059465046FDF734FF049D08F130032B70F6
:103610000A9B012B06460F4605F1010568D00022E2
:10362000184BFEF7D9F80022002306460F4602F099
:103630009FF9002840F08880CDF82C904FF0000AC8
:10364000DFF840B00C94DDE9088928E0AFF3008092
:1036500061436F63A787D23FB3C8608B288AC63F98
:10366000FB799F501344D33F0000F07FDD5D4000A5
:10367000005E40000C5E40000000F83F485E4000E5
:10368000DC5D400000002440FEF7A6F80022002385
:1036900006460F4602F06CF9002840F0C18342460E
:1036A0004B4630463946FEF7C1F902F0A9F9044607
:1036B000FEF72CF842464B46FEF78EF802460B46C4
:1036C00030463946FDF7D4FE04F1300E049E05F86D
:1036D00001EBA5EB060E0A9EB645CDE90601524662
:1036E0005B46D1D1A046DDF82C900C9C06460F46D7
:1036F00032463B4630463946FDF7BCFE06460F468D
:1037000002460B46DDE9080102F03CF948B93246B1
:103710003B46DDE9080102F02BF9A8B118F0010FD2
:1037200012D015F8018C049A6B1E04E09A4200F046
:10373000018413F8018DB8F1390F03F10105F5D0BB
:1037400008F1010883F800804946204601F010FB8B
:103750000022029B2A70269A01331360289B002BBB
:1037600000F09E8304981D601BB0BDE8F08F0B9A9B
:10377000002A3ED0249A012A40F311830A9B0C9A16
:103780005F1EBA42C0F28F83D71B0A9B002BC0F288
:103790008B84089D0A9B089A1A440892069A012174
:1037A0001A442046069201F07DFB064624E00123E0
:1037B0000E93AFE6089A029BD21A5B420C93002349
:1037C00008920D93B8E6C7F101030893002306930E
:1037D000A7E6029D2846FDF799FF02460B46DDE964
:1037E000040102F0C5F800287FF480AE6B1E02933E
:1037F0007CE60C9F089D0B9E002D0CDD0699002990
:103800000B4608DDA942089AA8BF2B46D21AED1A2A
:10381000CB1A089206930C9BD3B10B9B002B00F0A4
:10382000B782002F10DD31463A46204601F0D6FB24
:103830004A4601460646204601F03EFB4946804680
:10384000204601F095FAC1460C9BDA1B40F0A1829C
:103850000121204601F026FB0D9B002B80461CDD3C
:1038600001461A46204601F0B9FB249B012B8046F5
:1038700040F3548200230C93D8F8103008EB8303F4
:10388000186901F0BFFAC0F1200010E0C3F1200573
:103890000AFA05F074E60E903CE6249B012B40F3F7
:1038A000878200230C930D9B0120002BE4D1069A04
:1038B000104410F01F0000F0A180C0F12003042B81
:1038C00040F39E84089BC0F11C00034408931346F8
:1038D000034405440693089B002B05DD49461A4620
:1038E000204601F0CBFB8146069B002B05DD4146BF
:1038F0001A46204601F0C2FB80460E9B002B40F08A
:1039000086800A9B002B40F366820B9B002B00F005
:103910009880002D05DD31462A46204601F0AEFB99
:1039200006460C9B002B40F0378306960A9B049AB0
:10393000DDF818B0013BD3180B930AF001030C9388
:103940001746C24651464846FFF7A6FC3146054693
:10395000484601F0E5FB5A460A905146204601F0E0
:10396000FBFBC268804605F13003002A40F02B8241
:1039700001464846089301F0D3FB41460690204695
:1039800001F0F6F9069A089B32B9249921B90C9AEC
:10399000002A00F0EF83249A0A990029C0F29F823E
:1039A00005D1249919B90C99002900F09882002AB0
:1039B00000F306830B9A3B7007F1010897424546D6
:1039C00000F00C83494600230A22204601F0DAF970
:1039D0005E45814631464FF000034FF00A02204613
:1039E00000F0EB8101F0CEF95946064600230A2289
:1039F000204601F0C7F947468346A3E71C20089BF1
:103A000003440893069B03440544069363E7414639
:103A1000484601F085FB0028BFF673AF029F494678
:103A200000230A222046013F029701F0ABF90B9BCD
:103A30008146002B40F0B6830F9B002B40F3BF83E1
:103A40000A93DDF810B00A9F5D4602E001F09AF992
:103A5000814641464846FFF71FFC00F1300A05F851
:103A600001ABA5EB0B03BB424FF00A024FF0000382
:103A700049462046EADB049B0A9A012AACBF9B1800
:103A800001331D464FF0000B49460122204601F04C
:103A9000F5FA4146814601F043FB002840F33D82A0
:103AA00015F8012C04996B1E04E08B4200F0AE81E6
:103AB00013F8012D392A03F10105F6D001321A70ED
:103AC0004146204601F054F9002E3FF43DAEBBF1D3
:103AD000000F05D0B34503D05946204601F048F900
:103AE0003146204601F044F92EE600230B93029B59
:103AF000259A13440F930133012B1F461E460A9348
:103B0000B8BF01270021172F61640AD901220423BD
:103B10005B0003F114008742114602F10102F7D263
:103B20006164204601F0FEF80E2E049020643FF6FA
:103B300041AD002D3FF43EAD02990029CDE910AB17
:103B400040F30282B84B01F00F020D1103EBC203E8
:103B5000E906D3E9006740F1AE81B44B50465946BF
:103B6000D3E90823FDF762FFCDE9120105F00F0547
:103B70004FF0030A8DB1DFF8B482EA0709D5304669
:103B80003946D8E90023FDF727FE0AF1010A064667
:103B90000F466D1008F10808EFD13B463246DDE9CB
:103BA0001201FDF743FF074688460E9B43B10022F2
:103BB0009F4B3846414601F0E5FE002840F08682E2
:103BC0005046FDF7A3FD3A464346FDF705FE994BE7
:103BD0000022FDF74FFC0A9B0546A1F15076002B11
:103BE00000F03E81029B15930A9B12930B9B002BC6
:103BF00000F0FA81129A8C4B8F4903EBC20353E910
:103C000002230020FDF712FF2A463346FDF730FC61
:103C100082468B463846414601F0F2FE0546FDF7E6
:103C200075FD02460B4638464146FDF721FC30350E
:103C30005FFA85F8049D06460F4685F80080024627
:103C40000B4650465946013501F0BAFE002854D1C2
:103C500032463B4600207649FDF70AFC02460B46F9
:103C60005046594601F0ACFE002840F07082129A8E
:103C7000012A00F01181129B049ACDF84890134458
:103C800099460DE000206A49FDF7F2FB52465B467B
:103C900001F078FE002840F058824D4500F0FA808F
:103CA000504659460022654BFDF796FD0022634BB6
:103CB00082468B4630463946FDF78EFD0F46064656
:103CC00001F09EFE8046FDF721FD02460B46304680
:103CD0003946FDF7CDFB08F130085FFA88F8524607
:103CE0005B4605F8018B06460F4601F04BFE324657
:103CF0003B460028C6D0DDF84890159B029323E58B
:103D000000230B93259B002B40F3DC801F461E46AF
:103D10000F930A93F6E601230B93F3E7BAF1000F32
:103D20007FF4A8ADCBF31303002B7FF4BAAD2BF0D7
:103D300000473F0D3F05002F00F00D82089B013327
:103D40000893069B0133069301230C93ABE50A9B72
:103D5000002B3FF742AC40F021820022384BDDE9D6
:103D60000801FDF739FD52465B4601F01FFEDDF804
:103D700028804646002841D0259B049DDB430293C2
:103D80004146204600F0F4FF002E3FF4DDACA7E6EC
:103D90000C9A4946204601F021F9814658E5149ACB
:103DA000002A00F0878103F233430C9F089DF2E460
:103DB000BAF1000F7FF475ADB4E700F0E3FF4746BA
:103DC00006468346BEE501462046069300F0D0FF36
:103DD0000122069BE0E5249B022B7FF796AD0A9B10
:103DE000002BC9D141460522204600F0CBFF0146F9
:103DF0008046484601F094F90028BDDD029A0499F6
:103E00003123013202920B704D1CB9E7029A013244
:103E10000292049A3123137052E601230B9366E653
:103E2000DDF82C900C9C8FE4485E4000205E400042
:103E30000000F03F00001C400000E03F0000244074
:103E4000000014405046FDF761FC3A464346FDF73A
:103E5000C3FC0022C14BFDF70DFB0546A1F15076D6
:103E600041460022BE4B3846FDF702FB2A46334648
:103E700082468B4601F0A4FD8046002840F0108168
:103E80002A4606F100435046594601F07BFD18B121
:103E9000464671E7DDF84890DDE910ABFFF78ABBD5
:103EA0000498FFF7BBBA0C9B0D9A0C97FB1A1A44A7
:103EB0000D92002769E4DDE910234FF0020ACDE9F5
:103EC000122357E60021012361642046259300F068
:103ED00029FF259B049020640A930F9329E6002A6A
:103EE000D046CDF818B09A4611DD49460122204649
:103EF00001F0C4F84146814601F012F9002840F370
:103F00004681BAF1390F00F0068105F1310AB34656
:103F100087F800A07D1C069ED2E504D11AF0010F9F
:103F200001D0BDE5154615F8013C302B05F1FF32F7
:103F3000F8D0C5E5049930220A70029A15F8018C70
:103F400001320292FFF7FCBB00F0BB80029B5D4296
:103F5000844B05F00F0203EBC203D3E90023DDE934
:103F60001001FDF739FC2D110746884600F02C8121
:103F70007D4E4FF0020AEB0709D538464146D6E997
:103F80000023FDF729FC0AF1010A074688466D1057
:103F900006F10806EFD108E67168204600F0C2FE7F
:103FA000336902339A00054606F10C010C3000F02B
:103FB000AFFD29460122204601F060F80690B5E4E5
:103FC000392BCDF818B0D04600F0A58003F1010AD6
:103FD000B34687F800A07D1C069E71E55A46D04680
:103FE000B3469A4616464FE5129B5E4901EBC30164
:103FF0002A46334651E90201FDF7EEFBCDE91601F1
:104000003846414601F0FCFC0546FDF77FFB0B46B8
:10401000024641463846FDF72BFA129B0F4604999B
:104020003035012B0D70064601F1010526D0129B9B
:10403000049ADFF83CB1CDF8489013444FF0000AE1
:10404000994652465B4630463946FDF7C5FB0F465A
:10405000064601F0D5FC8046FDF758FB08F1300814
:1040600002460B4630463946FDF702FA05F8018B49
:104070004D4506460F46E4D1DDF848903B4B002203
:10408000DDE91601FDF7F6F932463B4601F07AFC10
:10409000002846D0159B029315F8018CFFF743BB0F
:1040A0004FF000084646A9E6089B0A9A9D1A00238D
:1040B000FFF771BB189B0C9F089DC3F13603FFF7F8
:1040C0006ABBDDE910784FF0020A6EE50A9B002B0F
:1040D0003FF4B8AE0F9B002B7FF7DEAE0022244BDF
:1040E00038464146FDF778FB074688460AF101004D
:1040F000FDF70CFB3A464346FDF76EFB0022174BDB
:10410000FDF7B8F9029A0F9B1293013A0546A1F107
:10411000507615926AE53922B3463A70069E7D1CA8
:10412000C0E4DDE9162300201049FDF7A1F932466D
:104130003B4601F045FC08B9AEE6154615F8013CD2
:10414000302B05F1FF32F8D0D7E5DDF84890159B0C
:104150000293FFF7E8BA0C97FFF7A5BB00001C40DD
:1041600000001440485E4000205E40000000E03F38
:1041700000002440392BCDF818B0D046DDF828B027
:104180009A46C8D0BBF1000F3FF7BFAEBFE67FF441
:10419000BEAE1AF0010F3FF4BAAEB2E64FF000081F
:1041A0004646E9E5314600230A22204600F0EAFDB2
:1041B0000F9B002B06460ADD0A93FFF7AABB249B40
:1041C000022B23DC0F9B3BE44FF0020AEDE4249B1F
:1041D000022B1BDC0F9BEFE7002565642946204678
:1041E00000F0A0FD4FF0FF330A930F9301230490DA
:1041F000259520640B93FFF7DDB90125FFF7A5B9DD
:104200003FF469ABC0F13C00FFF7F9BB0F9B0A9389
:10421000E5E500BF38B50A4C0A4D641BA4100AD06E
:1042200004F18043013B05EB8305013C55F804395B
:104230009847002CF9D1BDE8384001F0FBBE00BF23
:104240004460400040604000F8B5244F0C460646EC
:1042500000F05CFDBB685D68C4F57E610F3125F040
:104260000305294421F47F6121F00F01A1F5805459
:10427000B4F5805F07DB0021304601F0F3F9BB683D
:104280002B44984204D0304600F046FD0020F8BD93
:104290006142304601F0E6F901300DD0104BBA68AA
:1042A00019682D1B45F001053046091B5560196042
:1042B00000F032FD0120F8BD0021304601F0D2F9B6
:1042C000BA68831A0F2BDEDD064C0549246843F0DB
:1042D0000103001B53600860D5E700BFA809002058
:1042E0004C0E0020B00D0020002944D02DE9F041F3
:1042F0000D46804600F00AFD55F8047C694927F018
:104300000103A5F10804E2188E685068B24220F05B
:1043100003005ED0FE0750600BD455F8087CE41B08
:1043200001F1080EA56875453B446DD0E768EF6064
:10433000BD6015186D68ED073ED543F0010262605F
:10434000E350B3F5007F17D2DB08581C9A104D6874
:1043500051F83070A7600123934001EBC0022B435A
:10436000083AE2604B6041F83040FC604046BDE8EE
:10437000F04100F0D1BC70475A0A042A52D89A0979
:1043800002F13907FF0002F13805C819CA59083887
:1043900090424FD0516821F003018B4232D2926893
:1043A0009042F7D1C368A060E3609C60C46040465F
:1043B000BDE8F04100F0B0BC95683B4FBD420344FE
:1043C00040D0D068E86043F0010285606260E3504D
:1043D000B7E7FF07034407D455F8082CA41A134481
:1043E000A068E268C2609060304A126843F0010041
:1043F000934260608C60B9D32D4B40461968FFF73B
:1044000023FFB3E71046CDE711184968C90744D424
:104410009168D268CA60034443F001009160606013
:10442000E350A3E7142A16D802F15C07FF0002F15B
:104430005B05AAE7AA1001234D6893402B434B600C
:104440000346B0E743F001024C610C61E560A560F2
:104450006260E3508AE7542A06D81A0B02F16F070C
:10446000FF0002F16E0590E7B2F5AA7F06D8DA0BDD
:1044700002F17807FF0002F1770586E740F2545019
:10448000824206D89A0C02F17D07FF0002F17C05FA
:104490007BE74FF47E777E2577E743F0010161608B
:1044A000136063E7A8090020B0090020B40D0020C4
:1044B0007C0E0020044A054B1268506B002808BF90
:1044C0001846F030704700BF0C0400203C08002064
:1044D000704700BF704700BF2DE9F04F01F10B0698
:1044E000162E83B0054640F29E8036F0070600F196
:1044F000BD80B14200F2BA8000F008FCB6F5FC7F46
:10450000C0F09382730A00F0B880042B00F2798126
:10451000B30903F1390003F1380EC300BF4F3B4428
:10452000A3F108015C68A14206D10CE0002A80F2E8
:10453000AA80E468A14206D0636823F003039A1BB3
:104540000F2AF3DD70463C69DFF8E4E2744500F0C1
:10455000AB81636823F003039A1B0F2A00F3908159
:10456000002AC7F814E0C7F810E080F29D80B3F588
:10457000007F80F06181DB0803F1010C99107A68FB
:1045800057F83C80C4F8088001238B4007EBCC012E
:1045900013430839E1607B6047F83C40C8F80C40A1
:1045A0008210012494409C4200F28B801C4206D170
:1045B00020F0030064001C4200F10400FAD007EB75
:1045C000C009CC468046DCF80C309C4507D16DE133
:1045D000002A80F27B81DB689C4500F06781596886
:1045E00021F003018A1B0F2AF2DDD3F80CC0D3F8A7
:1045F000088000939C19284646F0010642F0010508
:104600005E60C8F80CC0CCF808807C613C61C4F8DE
:104610000CE0C4F808E065605A5000F07DFB009B98
:1046200003F108041EE0102920D800F06FFB1026CB
:1046300018230220794F3B44A3F108025C6894429E
:1046400000F03D816368E168A66823F0030323441A
:1046500028465A68F16042F001028E605A6000F00C
:104660005BFB0834204603B0BDE8F08F00240C2328
:1046700020462B6003B0BDE8F08F40204FF400735C
:104680004FF03F0E4AE72344E1685A68A66842F0BB
:104690000102F16028468E605A6000F03DFB08344C
:1046A000204603B0BDE8F08F234428465A6842F004
:1046B00001025A6000F030FB0834204603B0BDE828
:1046C000F08FBC68636823F00308B04504D3A8EBFF
:1046D00006030F2B00F38580DFF85891504BD9F873
:1046E00000201B680132334404EB080A00F05581B6
:1046F00003F580530F3323F47F6B2BF00F0B5946D8
:10470000284600F0AFFF411C024600F0FC808245C5
:1047100000F2F780434B19685944196000F04D814D
:10472000D9F8000001301BBFA2EB0A0A5144C9F8B6
:104730000020196012F0070100F01581C1F1080096
:10474000C1F580510244083102EB0B09C9F30B0992
:10475000A1EB0909494628460193009200F082FF27
:10476000431C9DE80C0000F04381801A484440F04F
:1047700001001968BA604944BC425060196017D002
:10478000B8F10F0F40F2FB806068A8F10C0222F034
:10479000070204EB020E00F001004FF0050C10437D
:1047A0000F2A6060CEF804C0CEF808C000F217816E
:1047B0001D4BBC681A68914288BF19601B4B1A6870
:1047C0009142626888BF196022F003029642A2EB10
:1047D000060301D80F2B04DC284600F09DFA0024C4
:1047E00040E7A21943F0010346F00106666028463F
:1047F000BA60536000F090FA0834204603B0BDE878
:10480000F08F142B71D9542B00F2A380330B03F1DA
:104810006F0003F16E0EC30080E600BFA809002000
:104820007C0E00204C0E0020740E0020780E00201C
:10483000B0090020B00D00205A0A042A5BD9142ABE
:1048400000F2AE8002F15C01C9005B3207EB010CA3
:104850007958ACF1080C8C4500F088804A6822F049
:104860000302934273D289688C45F7D1DCF80C209F
:104870007B68E260C4F808C09460CCF80C408FE616
:10488000A11946F0010C42F00106C4F804C0284604
:1048900079613961C1F80CE0C1F808E04E60E2507E
:1048A00000F03AFA0834DDE67B6879E608F10108A1
:1048B00018F0030F0CF1080C7FF485AE2DE0DC68D6
:1048C000A34208BF02303FF43EAEBBE619441C468B
:1048D0004A68DB6854F8086F42F001024A602846D3
:1048E000F3609E6000F018FABCE603F15C0003F18F
:1048F0005B0EC30012E69A0902F13901C900383291
:10490000A4E7BC4254D0BC68626822F003025DE7B1
:1049100059F80839994540F0868010F0030F00F1EE
:10492000FF30F5D17B6823EA04037B6064009C427E
:104930003FF6C7AE002C3FF4C4AE1C4240467FF4A5
:104940003EAE64001C4200F10400FAD037E68C460B
:104950008CE7B3F5AA7F15D8F30B03F1780003F1C8
:10496000770EC300DAE54FF48051EDE67B689210D4
:10497000012101FA02F213437B60624679E70123C9
:10498000536029E740F25452934222D8B30C03F10A
:104990007D0003F17C0EC300C0E503F1100BAEE611
:1049A000542A29D81A0B02F16F01C9006E324DE763
:1049B000204B196859441960B2E6CAF30B0000286D
:1049C0007FF4AEAE08EB0B03BA6843F0010353600B
:1049D000EEE67F204FF47E734FF07E0E9EE504F1ED
:1049E000080128460093FFF77FFC009B1968DFE66B
:1049F00001204FF00009BCE6B2F5AA7F05D8DA0B1A
:104A000002F17801C900773220E740F254518A421E
:104A100005D89A0C02F17D01C9007C3216E74FF4EB
:104A20007E717E2212E77B6880E7F00806F10803BA
:104A300000E600BF4C0E002082B049B15AB16BB104
:104A400013780B601278101C18BF012002B0704759
:104A500001A9002AF3D1104602B070476FF001009F
:104A6000F4E700BF000000000000000000000000AC
:104A700001F0FF01102A2BDB10F0070F08D010F80F
:104A8000013B013A8B422DD010F0070F42B3F6D113
:104A9000F0B441EA012141EA014122F007047FF02C
:104AA00000070023F0E80256083C85EA010586EA83
:104AB000010685FA47F5A3FA87F586FA47F6A5FABF
:104AC00087F68EB9EED1F0BC01F0FF0102F00702CB
:104AD00032B110F8013B013A83EA010313B1F8D176
:104AE0000020704701387047002D06BF3546033857
:104AF000073815F0010F07D1013015F4807F02BF90
:104B0000013015F4C03F0130F0BC0138704700BFE0
:104B1000844641EA000313F003036DD1403A41D3C8
:104B200051F8043B40F8043B51F8043B40F8043B87
:104B300051F8043B40F8043B51F8043B40F8043B77
:104B400051F8043B40F8043B51F8043B40F8043B67
:104B500051F8043B40F8043B51F8043B40F8043B57
:104B600051F8043B40F8043B51F8043B40F8043B47
:104B700051F8043B40F8043B51F8043B40F8043B37
:104B800051F8043B40F8043B51F8043B40F8043B27
:104B900051F8043B40F8043B51F8043B40F8043B17
:104BA000403ABDD2303211D351F8043B40F8043BB7
:104BB00051F8043B40F8043B51F8043B40F8043BF7
:104BC00051F8043B40F8043B103AEDD20C3205D3C7
:104BD00051F8043B40F8043B043AF9D2043208D0BF
:104BE000D2071CBF11F8013B00F8013B01D30B8831
:104BF00003806046704700BF082A13D38B078DD00F
:104C000010F003038AD0C3F10403D21ADB071CBFE0
:104C100011F8013B00F8013B80D331F8023B20F84A
:104C2000023B7BE7043AD9D3013A11F8013B00F883
:104C3000013BF9D20B7803704B7843708B7883700B
:104C4000604670478842F0B50DD98B1898420AD259
:104C50008418002A51D0224613F8014D02F8014D64
:104C60009942F9D1F0BD0F2A48D941EA00039B07C8
:104C700046D100F1100401F11003154653F8106CF1
:104C800044F8106C53F80C6C44F80C6C53F8086C36
:104C900044F8086C103D53F8046C44F8046C0F2D74
:104CA00003F1100304F11004E8D8A2F1100323F07B
:104CB0000F0302F00F0E1033BEF1030F194403442B
:104CC00021D91E1F0D467446043C55F8047B46F856
:104CD000047F032CF8D8AEF1040424F00304043458
:104CE0002144234402F0030262B1013B0A4411F85B
:104CF000014B03F8014F8A42F9D1F0BD0346F3E7B7
:104D00000346F2E7F0BD7246EEE700BF0148FFF749
:104D1000DFBB00BFA40E00200148FFF7DBBB00BFD4
:104D2000A40E0020C36C70B505460C464BB153F879
:104D3000240080B1026843F8242000230361C3608B
:104D400070BD2122042100F08DFDE8640346002897
:104D5000EDD1002070BD012101FA04F6721D284634
:104D6000920000F07FFD0028F3D044608660E4E705
:104D700031B1C36C4A6853F82200086043F822102E
:104D8000704700BFF0B50C6983B00D46064601F1CF
:104D9000140E0027DEF8000081B202FB0133010C83
:104DA000180C02FB01019BB2013703EB0143BC422B
:104DB0004EF8043B4FEA1143ECDC3BB1AA68944245
:104DC00007DA05EB8402013453612C61284603B0F5
:104DD000F0BD6968019301313046FFF7A3FF2A69EE
:104DE000023205F10C01074692000C30FFF790FEED
:104DF000F26C6968019B52F82100286042F821504A
:104E00003D46DEE7020C12040346B2B9030410204B
:104E100013F07F4F04BF1B02083013F0704F04BF24
:104E20001B01043013F0404F04BF9B000230002BE5
:104E300002DB5B0003D4202070470020E8E701304C
:104E4000704700BF036813F00702014607D0DA0776
:104E500021D4980721D49B080B600220704798B298
:104E600098B1104613F0FF0F04BF1B0A08301A0751
:104E700004BF1B0904309A0704BF9B080230DA07FD
:104E800007D45B0804D1202070471B0C1020E9E7F1
:104E900001300B607047002070475B080B600120F9
:104EA000704700BF10B50C460121FFF73BFF012200
:104EB0004461026110BD00BF2DE9F04F0C69156916
:104EC000AC4283B08B46164604DA2246B3462C46E3
:104ED0000E461546DBF80830DBF8041004EB050835
:104EE0009845C8BF0131FFF71DFF00F1140909EB18
:104EF000880AD145009005D24B46002143F8041B97
:104F00009A45FBD806F1140C0CEB85030BF1140B3E
:104F10009C450BEB840E4CD2CDF804A09A46DCF8ED
:104F20000050AFB2EFB100214D465E460C4656F838
:104F3000042B286893B281B207FB0313120C010CF7
:104F4000234407FB021101EB13419BB243EA0143E7
:104F5000B64545F8043B4FEA1144E8D82C60DCF82C
:104F600000502D0C1DD0D9F8003048461C4659463B
:104F700000220E88240C05FB064422449BB243EA1F
:104F8000024340F8043B51F8043B04681B0CA6B2F2
:104F900005FB036303EB12438E454FEA1342E8D847
:104FA00003600CF1040CE24509F10409B7D8DDF8FF
:104FB00004A0B8F1000F0BDD5AF8043CAAF1040A72
:104FC0001BB105E05AF8043D13B9B8F10108F9D155
:104FD0000098C0F8108003B0BDE8F08F12F0030312
:104FE0002DE9F041144607462ED10D46A4101CD0E1
:104FF000BE6C96B3E3074FF0000806D4641014D0DB
:105000003068A8B10646E307F8D532462946384647
:10501000FFF752FFB5B16A68FB6C641053F82210B9
:10502000296043F822500546EAD12846BDE8F081C0
:10503000324631463846FFF73FFF3060C0F8008007
:105040000646E0E70546D9E75A1E0B4D002355F802
:105050002220FFF797FE0546C8E701213846FFF7F3
:1050600061FE40F271210122002341610261064686
:10507000B8640360BEE700BF105F40002DE9F8434D
:1050800091460A698B684FEA691404EB020808F13B
:1050900001059D420E460746496804DD5B009D42BE
:1050A00001F10101FADC3846FFF73CFE002C00F16B
:1050B000140306DD03EB8402002143F8041B9A422B
:1050C000FBD1346906F1140119F01F0901EB840EBC
:1050D0001DD0C9F1200C00220C6804FA09F4144315
:1050E00043F8044B51F8042B8E4522FA0CF2F3D806
:1050F0001A600AB108F10205FB6C7268013D53F8B1
:1051000022100561316043F82260BDE8F883043B5A
:1051100051F8042B43F8042F8E45F9D8ECE700BF73
:1051200030B40B6905460069C01A0FD19B001435D5
:10513000143119442B4401E09D4207D253F8044D29
:1051400051F8042D9442F7D002D3012030BC7047AF
:105150004FF0FF30FAE700BF2DE9F0410F690E462E
:1051600011697F1A002F904617D1890006F11405A6
:1051700002F1140E6B18714401E09D425CD253F8A9
:10518000042D51F8044DA242F7D05ED233462C468E
:10519000464675469846012705E058DB06F114059A
:1051A00008F1140400277168FFF7BCFDD8F810302F
:1051B0003669C76004EB830CA64605EB860700F151
:1051C000140400235EF8041B55F8048B8AB213FA0A
:1051D00088F3090C9A1AC1EB184303EB224392B2ED
:1051E00042EA0342F44544F8042B4FEA2343E9D84A
:1051F000AF4217D9A446AE465EF8042B13FA82F3E9
:10520000191401EB12419BB243EA014277454CF875
:10521000042B4FEA2143EFD8ED432F4427F0030737
:1052200004373C44043C22B954F8043D013E002BB1
:10523000FAD00661BDE8F0810021FFF773FD01227D
:10524000002302614361BDE8F0817446ABE7334659
:1052500006F1140402F11405164601279846A2E748
:105260002DE9F04182B001211C46C3F30A571546CF
:10527000089EFFF757FDC4F3130480460FB144F4B2
:10528000801401941DB302A840F8085DFFF7DAFD11
:10529000002834D19DE80C00C8F81420002B0CBF66
:1052A00001210221C8F81830C8F81010DFB908EB46
:1052B0008103A0F2324030601869FFF7A3FD099B1B
:1052C000C0EB41101860404602B0BDE8F08101A873
:1052D000FFF7B8FD019BC8F8143001212030C8F851
:1052E0001010002FE3D0099BA7F233470744C0F109
:1052F000350037601860404602B0BDE8F0819DE897
:105300000A00C0F1200203FA02F20A43C3400193EB
:10531000C8F81420C2E700BF002900F095802DE9ED
:10532000F04F0D46164683B0804606F10B07FFF797
:10533000EDFC55F804EC162F2EF00304A5F1080936
:105340003CD810221746BE423DD8944243DAC44BA3
:10535000996809EB0400884200F0B480436823F0A8
:10536000010101444968C9074CD51EF0010F00F046
:105370009B8031464046FFF7AFF8064600283AD0FA
:1053800055F8043C23F001034B44A0F108029A4273
:1053900000F02181221F242A00F20781132A00F243
:1053A000DB8003462A46116819605168596092688B
:1053B0009A6029464046FEF797FF1CE027F0070752
:1053C000002F3A46BFDA00260C233046C8F80030DA
:1053D00003B0BDE8F08F2E46E31B0F2B1ED8D9F883
:1053E000043003F0010323434C44C9F804306368DC
:1053F00043F0010363604046FFF78EFC304603B084
:10540000BDE8F08F23F00303E11891421FDBC3686E
:1054100082682E46D3600C469A60DDE7D9F80420F6
:1054200009EB070102F001024C4443F0010317436A
:10543000C9F804704B60636843F00103083163608E
:105440004046FEF751FFD6E71146FFF745B81EF07C
:10545000010F8ED155F8081CA9EB010ADAF80410E7
:1054600021F003010B442344934225DBC268816889
:105470005646CA609160DAF80C1056F8080F221FE1
:10548000242AC160886000F29480132A6FD92968A9
:10549000CAF808106968CAF80C101B2A00F2A2802A
:1054A00008350AF1100263E055F8083CA9EB030A3D
:1054B000DAF8041021F0030163189342FFF659AFA4
:1054C0005646D8E7416821F0030BA34407F11000CA
:1054D000834556DA1EF0010F7FF44BAF55F8081CD8
:1054E000A9EB010ADAF8041021F003018B445845B6
:1054F000E2DC5646DAF80C1056F8080F221F242A70
:10550000C160886000F28F80132A40F28A80296887
:10551000CAF808106968CAF80C101B2A00F28A80C1
:1055200008350AF110022968116069685160A9689C
:1055300091600AEB0701ABEB070242F001029960B0
:105540004A60DAF8043003F001031F434046CAF80A
:105550000470FFF7E1FB51E72B6803606B68436061
:105560001B2A2DD800F1080305F108021BE732467B
:105570002968116069685160A96891601C46D1462C
:105580002AE709EB0701ABEB070B4BF0010299602F
:105590004A6055F8043C03F001031F43404645F8B8
:1055A000047CFFF7B9FB2E4628E72946FFF74AFBA4
:1055B000FFE6294630461C46D146FFF743FB0BE782
:1055C000AB688360EB68C360242A17D000F1100336
:1055D00005F11002E7E650F8043C23F003031C44F5
:1055E0002E46F9E6A968CAF81010E968CAF814103E
:1055F000242A0CD010350AF11802B9E72B6903618F
:105600006B69436105F1180200F11803CBE62A69C2
:10561000CAF818206A69CAF81C2018350AF1200255
:10562000A6E732467FE7294630460193FFF70AFB9B
:10563000019B7EE7A968CAF81010E968CAF814103F
:10564000242A03D010350AF118026CE72A69CAF837
:1056500018206A69CAF81C2018350AF1200262E78E
:10566000A809002038B5074C0023054608462360EA
:10567000FBF77AFD431C00D038BD2368002BFBD01C
:105680002B6038BDB80E00202DE9F04F936883B031
:105690009046002B70D082460C4617688D680868CB
:1056A00042E0A38913F4906F2ED06569216905EB60
:1056B0004505A0EB010B05EBD5750BF101006D1055
:1056C0003044A8422A4684BF05462A465B0538D5A1
:1056D00011465046FEF700FF00283CD05A4621698B
:1056E0000190FFF715FAA289019B22F4906242F023
:1056F0008002A281A5EB0B0203EB0B006561236125
:105700002060A2603546B3465A464946FFF79AFAEA
:10571000D8F80830A2682068551B58449E1BA56025
:105720002060C8F808603EB37E683B460837002E0C
:10573000FAD0AE42D3F80090AB46B2D23546B3466B
:10574000E2E75046FFF7E8FD03460028D2D1216981
:105750005046FEF7C9FD0C23CAF80030A389002289
:1057600043F040034FF0FF30A381C8F80820C8F889
:10577000042003B0BDE8F08F0020C8F8040003B097
:10578000BDE8F08F21B1FF2A04D80A7001207047CC
:10579000084670478A2303604FF0FF30704700BF10
:1057A0002DE9F8432C4D0646286898460F46914649
:1057B000FEF78EFE294B1C68D4F84831002B3ED0F2
:1057C0005A681F2A1CDC02F1010E76B103EB82013C
:1057D0000124C1F88890D3F8880194402043022E18
:1057E000C3F88801C1F8088123D00232C3F804E06D
:1057F000286843F82270FEF76DFE0020BDE8F883AC
:10580000174B0BB34FF4C870AFF300800346D8B109
:10581000D4F848210260002141600A46C4F84801DA
:105820004FF0010EC0F88811C0F88C11002EDCD0AA
:10583000CCE7D3F88C110C43C3F88C41D5E704F5C1
:10584000A673C4F84831BBE72868FEF743FE4FF063
:10585000FF30BDE8F88300BF38080020985D4000A5
:105860000000000010B502FB01F1FEF735FE044612
:10587000D8B150F8042C22F00302043A242A18D894
:10588000132A14D900231B2A0360436016D9242A43
:105890008360C36011BF00F110020361436100F136
:1058A00018020023136053609360204610BD024627
:1058B000F7E70021FCF7CAF9204610BD00F1080205
:1058C000EFE700BF4FF0FF3C06E000BF4FF0010CD8
:1058D00002E000BF4FF0010C4DF804CD4FEA410C3F
:1058E0007FEA6C5C4FEA430C18BF7FEA6C5C1BD00C
:1058F00001B050EA410C0CBF52EA430C91EA030F8D
:1059000002BF90EA020F0020704710F1000F91EAE9
:10591000030F58BF994208BF90422CBFD8176FEAB7
:10592000E37040F0010070474FEA410C7FEA6C5C85
:1059300002D150EA013C07D14FEA430C7FEA6C5C8C
:10594000D6D152EA033CD3D05DF8040B704700BFB8
:105950008446104662468C461946634600E000BF06
:1059600001B5FFF7B7FF002848BF10F1000F01BDD8
:105970004DF808EDFFF7F4FF0CBF012000205DF8A3
:1059800008FB00BF4DF808EDFFF7EAFF34BF012028
:1059900000205DF808FB00BF4DF808EDFFF7E0FFC1
:1059A00094BF012000205DF808FB00BF4DF808ED12
:1059B000FFF7CEFF94BF012000205DF808FB00BF79
:1059C0004DF808EDFFF7C4FF34BF012000205DF85B
:1059D00008FB00BF4FEA410C7FEA6C5C02D150EA41
:1059E000013C0AD14FEA430C7FEA6C5C02D152EAD7
:1059F000033C02D14FF0000070474FF001007047A8
:105A00004FEA410212F5001215D211D56FF47873E6
:105A1000B3EB625212D94FEAC12343F0004343EA89
:105A2000505311F0004F23FA02F018BF4042704764
:105A30004FF00000704750EA013005D111F00040EE
:105A400008BF6FF0004070474FF00000704700BF84
:105A500053B94AB9002908BF00281CBF4FF0FF31D5
:105A60004FF0FF3000F07AB9ADF1080C6DE904CECB
:105A700000F006F8DDF804E0DDE9022304B0704729
:105A80002DE9F0478C460D460446089E002B51D167
:105A90008A4217466DD9B2FA82FEBEF1000F0BD0D2
:105AA000CEF1200C01FA0EF520FA0CFC02FA0EF7EA
:105AB0004CEA050C00FA0EF44FEA174A250CBCFB21
:105AC000FAF81FFA87F90AFB18CC45EA0C4508FBDF
:105AD00009F3AB420AD9ED1908F1FF3280F02381B6
